{
  "contractName": "FeesStorage",
  "abi": [
    {
      "inputs": [],
      "name": "balance",
      "outputs": [
        {
          "internalType": "uint256",
          "name": "",
          "type": "uint256"
        }
      ],
      "stateMutability": "view",
      "type": "function",
      "constant": true
    },
    {
      "inputs": [],
      "name": "owner",
      "outputs": [
        {
          "internalType": "address",
          "name": "",
          "type": "address"
        }
      ],
      "stateMutability": "view",
      "type": "function",
      "constant": true
    },
    {
      "inputs": [],
      "name": "renounceOwnership",
      "outputs": [],
      "stateMutability": "nonpayable",
      "type": "function"
    },
    {
      "inputs": [
        {
          "internalType": "address",
          "name": "newOwner",
          "type": "address"
        }
      ],
      "name": "transferOwnership",
      "outputs": [],
      "stateMutability": "nonpayable",
      "type": "function"
    },
    {
      "stateMutability": "payable",
      "type": "receive",
      "payable": true
    },
    {
      "inputs": [
        {
          "internalType": "address payable",
          "name": "_recipient",
          "type": "address"
        },
        {
          "internalType": "uint256",
          "name": "_amount",
          "type": "uint256"
        }
      ],
      "name": "withdraw",
      "outputs": [],
      "stateMutability": "payable",
      "type": "function",
      "payable": true
    },
    {
      "inputs": [],
      "name": "getBalance",
      "outputs": [
        {
          "internalType": "uint256",
          "name": "",
          "type": "uint256"
        }
      ],
      "stateMutability": "view",
      "type": "function",
      "constant": true
    }
  ],
  "bytecode": "0x60806040524760015534801561001457600080fd5b50336000806101000a81548173ffffffffffffffffffffffffffffffffffffffff021916908373ffffffffffffffffffffffffffffffffffffffff160217905550610759806100646000396000f3fe6080604052600436106100595760003560e01c806312065fe014610065578063715018a6146100905780638da5cb5b146100a7578063b69ef8a8146100d2578063f2fde38b146100fd578063f3fef3a31461012657610060565b3661006057005b600080fd5b34801561007157600080fd5b5061007a610142565b6040516100879190610659565b60405180910390f35b34801561009c57600080fd5b506100a56101a5565b005b3480156100b357600080fd5b506100bc610240565b6040516100c991906105fe565b60405180910390f35b3480156100de57600080fd5b506100e7610264565b6040516100f49190610659565b60405180910390f35b34801561010957600080fd5b50610124600480360381019061011f91906104cc565b61026a565b005b610140600480360381019061013b91906104f5565b61033f565b005b60008060009054906101000a900473ffffffffffffffffffffffffffffffffffffffff1673ffffffffffffffffffffffffffffffffffffffff163373ffffffffffffffffffffffffffffffffffffffff161461019d57600080fd5b600154905090565b60008054906101000a900473ffffffffffffffffffffffffffffffffffffffff1673ffffffffffffffffffffffffffffffffffffffff163373ffffffffffffffffffffffffffffffffffffffff16146101fd57600080fd5b60008060006101000a81548173ffffffffffffffffffffffffffffffffffffffff021916908373ffffffffffffffffffffffffffffffffffffffff160217905550565b60008054906101000a900473ffffffffffffffffffffffffffffffffffffffff1681565b60015481565b60008054906101000a900473ffffffffffffffffffffffffffffffffffffffff1673ffffffffffffffffffffffffffffffffffffffff163373ffffffffffffffffffffffffffffffffffffffff16146102c257600080fd5b600073ffffffffffffffffffffffffffffffffffffffff168173ffffffffffffffffffffffffffffffffffffffff1614156102fc57600080fd5b806000806101000a81548173ffffffffffffffffffffffffffffffffffffffff021916908373ffffffffffffffffffffffffffffffffffffffff16021790555050565b60008054906101000a900473ffffffffffffffffffffffffffffffffffffffff1673ffffffffffffffffffffffffffffffffffffffff163373ffffffffffffffffffffffffffffffffffffffff161461039757600080fd5b6001548111156103dc576040517f08c379a00000000000000000000000000000000000000000000000000000000081526004016103d390610619565b60405180910390fd5b60008273ffffffffffffffffffffffffffffffffffffffff1682604051610402906105e9565b60006040518083038185875af1925050503d806000811461043f576040519150601f19603f3d011682016040523d82523d6000602084013e610444565b606091505b5050905080610488576040517f08c379a000000000000000000000000000000000000000000000000000000000815260040161047f90610639565b60405180910390fd5b505050565b60008135905061049c816106de565b92915050565b6000813590506104b1816106f5565b92915050565b6000813590506104c68161070c565b92915050565b6000602082840312156104de57600080fd5b60006104ec8482850161048d565b91505092915050565b6000806040838503121561050857600080fd5b6000610516858286016104a2565b9250506020610527858286016104b7565b9150509250929050565b61053a81610690565b82525050565b600061054d601e8361067f565b91507f4e6f7420656e6f756768204554487320696e207468652073746f7261676500006000830152602082019050919050565b600061058d600083610674565b9150600082019050919050565b60006105a760108361067f565b91507f5472616e73666572206661696c65642e000000000000000000000000000000006000830152602082019050919050565b6105e3816106d4565b82525050565b60006105f482610580565b9150819050919050565b60006020820190506106136000830184610531565b92915050565b6000602082019050818103600083015261063281610540565b9050919050565b600060208201905081810360008301526106528161059a565b9050919050565b600060208201905061066e60008301846105da565b92915050565b600081905092915050565b600082825260208201905092915050565b600061069b826106b4565b9050919050565b60006106ad826106b4565b9050919050565b600073ffffffffffffffffffffffffffffffffffffffff82169050919050565b6000819050919050565b6106e781610690565b81146106f257600080fd5b50565b6106fe816106a2565b811461070957600080fd5b50565b610715816106d4565b811461072057600080fd5b5056fea2646970667358221220644fb7f3b996f64b2335c1ee6c42854240bc68743a68d1118a4297a9adb21f4c64736f6c63430008000033",
  "immutableReferences": {},
  "source": "// SPDX-License-Identifier: MIT\npragma solidity ^0.8.0;\n\nimport \"./Ownable.sol\";\n\ncontract FeesStorage is Ownable {\n    uint256 public balance = address(this).balance;\n\n    /**\n     * Fallback function\n     */\n    receive() external payable {}\n\n    /**\n     * @dev Allows the `owner` to withdraw the selected `_amount`\n     * @param _recipient Address of the recipient\n     * @param _amount Amount of ETHs being withdrawed\n     */\n    function withdraw(address payable _recipient, uint256 _amount)\n        external\n        payable\n        onlyOwner\n    {\n        require(_amount <= balance, \"Not enough ETHs in the storage\");\n\n        (bool success, ) = _recipient.call{value: _amount}(\"\");\n        require(success, \"Transfer failed.\");\n    }\n\n    /**\n     * @dev Retrieve the amount of ETHs\n     * @return amount of ETHs stored in the contract\n     */\n    function getBalance() external view onlyOwner returns (uint256) {\n        return balance;\n    }\n}\n",
  "sourcePath": "/Users/niccolofant/dev/Solidity/Gamely/contracts/FeesStorage.sol",
  "compiler": {
    "name": "solc",
    "version": "0.8.0+commit.c7dfd78e.Emscripten.clang"
  },
  "schemaVersion": "3.4.3",
  "updatedAt": "2021-09-10T05:36:11.638Z",
  "networkType": "ethereum",
  "devdoc": {
    "kind": "dev",
    "methods": {
      "getBalance()": {
        "details": "Retrieve the amount of ETHs",
        "returns": {
          "_0": "amount of ETHs stored in the contract"
        }
      },
      "renounceOwnership()": {
        "details": "Allows the current owner to relinquish control of the contract."
      },
      "transferOwnership(address)": {
        "details": "Allows the current owner to transfer control of the contract to a newOwner.",
        "params": {
          "newOwner": "The address to transfer ownership to."
        }
      },
      "withdraw(address,uint256)": {
        "details": "Allows the `owner` to withdraw the selected `_amount`",
        "params": {
          "_amount": "Amount of ETHs being withdrawed",
          "_recipient": "Address of the recipient"
        }
      }
    },
    "version": 1
  },
  "userdoc": {
    "kind": "user",
    "methods": {},
    "version": 1
  }
}