{
  "contractName": "FeesStorage",
  "abi": [
    {
      "inputs": [],
      "name": "owner",
      "outputs": [
        {
          "internalType": "address",
          "name": "",
          "type": "address"
        }
      ],
      "stateMutability": "view",
      "type": "function",
      "constant": true
    },
    {
      "inputs": [],
      "name": "renounceOwnership",
      "outputs": [],
      "stateMutability": "nonpayable",
      "type": "function"
    },
    {
      "inputs": [
        {
          "internalType": "address",
          "name": "newOwner",
          "type": "address"
        }
      ],
      "name": "transferOwnership",
      "outputs": [],
      "stateMutability": "nonpayable",
      "type": "function"
    },
    {
      "stateMutability": "payable",
      "type": "receive",
      "payable": true
    },
    {
      "inputs": [
        {
          "internalType": "address payable",
          "name": "_recipient",
          "type": "address"
        },
        {
          "internalType": "uint256",
          "name": "_amount",
          "type": "uint256"
        }
      ],
      "name": "withdrawMoney",
      "outputs": [],
      "stateMutability": "payable",
      "type": "function",
      "payable": true
    }
  ],
  "bytecode": "0x608060405234801561001057600080fd5b50336000806101000a81548173ffffffffffffffffffffffffffffffffffffffff021916908373ffffffffffffffffffffffffffffffffffffffff160217905550610658806100606000396000f3fe6080604052600436106100435760003560e01c8063715018a61461004f5780638da5cb5b14610066578063f274c89714610091578063f2fde38b146100ad5761004a565b3661004a57005b600080fd5b34801561005b57600080fd5b506100646100d6565b005b34801561007257600080fd5b5061007b610171565b6040516100889190610518565b60405180910390f35b6100ab60048036038101906100a6919061041e565b610195565b005b3480156100b957600080fd5b506100d460048036038101906100cf91906103f5565b6102e1565b005b60008054906101000a900473ffffffffffffffffffffffffffffffffffffffff1673ffffffffffffffffffffffffffffffffffffffff163373ffffffffffffffffffffffffffffffffffffffff161461012e57600080fd5b60008060006101000a81548173ffffffffffffffffffffffffffffffffffffffff021916908373ffffffffffffffffffffffffffffffffffffffff160217905550565b60008054906101000a900473ffffffffffffffffffffffffffffffffffffffff1681565b60008054906101000a900473ffffffffffffffffffffffffffffffffffffffff1673ffffffffffffffffffffffffffffffffffffffff163373ffffffffffffffffffffffffffffffffffffffff16146101ed57600080fd5b47811115610230576040517f08c379a000000000000000000000000000000000000000000000000000000000815260040161022790610533565b60405180910390fd5b60008273ffffffffffffffffffffffffffffffffffffffff168260405161025690610503565b60006040518083038185875af1925050503d8060008114610293576040519150601f19603f3d011682016040523d82523d6000602084013e610298565b606091505b50509050806102dc576040517f08c379a00000000000000000000000000000000000000000000000000000000081526004016102d390610553565b60405180910390fd5b505050565b60008054906101000a900473ffffffffffffffffffffffffffffffffffffffff1673ffffffffffffffffffffffffffffffffffffffff163373ffffffffffffffffffffffffffffffffffffffff161461033957600080fd5b600073ffffffffffffffffffffffffffffffffffffffff168173ffffffffffffffffffffffffffffffffffffffff16141561037357600080fd5b806000806101000a81548173ffffffffffffffffffffffffffffffffffffffff021916908373ffffffffffffffffffffffffffffffffffffffff16021790555050565b6000813590506103c5816105dd565b92915050565b6000813590506103da816105f4565b92915050565b6000813590506103ef8161060b565b92915050565b60006020828403121561040757600080fd5b6000610415848285016103b6565b91505092915050565b6000806040838503121561043157600080fd5b600061043f858286016103cb565b9250506020610450858286016103e0565b9150509250929050565b6104638161058f565b82525050565b6000610476601e8361057e565b91507f4e6f7420656e6f756768204554487320696e207468652073746f7261676500006000830152602082019050919050565b60006104b6600083610573565b9150600082019050919050565b60006104d060108361057e565b91507f5472616e73666572206661696c65642e000000000000000000000000000000006000830152602082019050919050565b600061050e826104a9565b9150819050919050565b600060208201905061052d600083018461045a565b92915050565b6000602082019050818103600083015261054c81610469565b9050919050565b6000602082019050818103600083015261056c816104c3565b9050919050565b600081905092915050565b600082825260208201905092915050565b600061059a826105b3565b9050919050565b60006105ac826105b3565b9050919050565b600073ffffffffffffffffffffffffffffffffffffffff82169050919050565b6000819050919050565b6105e68161058f565b81146105f157600080fd5b50565b6105fd816105a1565b811461060857600080fd5b50565b610614816105d3565b811461061f57600080fd5b5056fea264697066735822122051aa85c8e444a3b621ec50a974df5041a143752944d1a3489868e131ba1033ef64736f6c63430008000033",
  "immutableReferences": {},
  "source": "// SPDX-License-Identifier: MIT\npragma solidity ^0.8.0;\n\nimport \"./Ownable.sol\";\n\ncontract FeesStorage is Ownable {\n    /**\n     * Fallback function\n     */\n    receive() external payable {}\n\n    /**\n     * @dev Allows the `owner` to withdraw the selected `_amount`\n     * @param _recipient Address of the recipient\n     * @param _amount Amount of ETHs being withdrawed\n     */\n    function withdrawMoney(address payable _recipient, uint256 _amount)\n        external\n        payable\n        onlyOwner\n    {\n        require(\n            _amount <= address(this).balance,\n            \"Not enough ETHs in the storage\"\n        );\n\n        (bool success, ) = payable(_recipient).call{value: _amount}(\"\");\n        require(success, \"Transfer failed.\");\n    }\n}\n",
  "sourcePath": "/Users/niccolofant/dev/Solidity/Gamely/contracts/FeesStorage.sol",
  "compiler": {
    "name": "solc",
    "version": "0.8.0+commit.c7dfd78e.Emscripten.clang"
  },
  "schemaVersion": "3.4.3",
  "updatedAt": "2021-09-13T09:42:44.370Z",
  "networkType": "ethereum",
  "devdoc": {
    "kind": "dev",
    "methods": {
      "renounceOwnership()": {
        "details": "Allows the current owner to relinquish control of the contract."
      },
      "transferOwnership(address)": {
        "details": "Allows the current owner to transfer control of the contract to a newOwner.",
        "params": {
          "newOwner": "The address to transfer ownership to."
        }
      },
      "withdrawMoney(address,uint256)": {
        "details": "Allows the `owner` to withdraw the selected `_amount`",
        "params": {
          "_amount": "Amount of ETHs being withdrawed",
          "_recipient": "Address of the recipient"
        }
      }
    },
    "version": 1
  },
  "userdoc": {
    "kind": "user",
    "methods": {},
    "version": 1
  }
}