{
  "contractName": "FeesStorage",
  "abi": [
    {
      "inputs": [],
      "name": "owner",
      "outputs": [
        {
          "internalType": "address",
          "name": "",
          "type": "address"
        }
      ],
      "stateMutability": "view",
      "type": "function"
    },
    {
      "inputs": [],
      "name": "renounceOwnership",
      "outputs": [],
      "stateMutability": "nonpayable",
      "type": "function"
    },
    {
      "inputs": [
        {
          "internalType": "address",
          "name": "newOwner",
          "type": "address"
        }
      ],
      "name": "transferOwnership",
      "outputs": [],
      "stateMutability": "nonpayable",
      "type": "function"
    },
    {
      "stateMutability": "payable",
      "type": "receive"
    },
    {
      "inputs": [
        {
          "internalType": "address payable",
          "name": "_recipient",
          "type": "address"
        },
        {
          "internalType": "uint256",
          "name": "_amount",
          "type": "uint256"
        }
      ],
      "name": "withdrawMoney",
      "outputs": [],
      "stateMutability": "payable",
      "type": "function"
    },
    {
      "inputs": [],
      "name": "getContractBalance",
      "outputs": [
        {
          "internalType": "uint256",
          "name": "",
          "type": "uint256"
        }
      ],
      "stateMutability": "view",
      "type": "function"
    }
  ],
  "bytecode": "0x608060405234801561001057600080fd5b50336000806101000a81548173ffffffffffffffffffffffffffffffffffffffff021916908373ffffffffffffffffffffffffffffffffffffffff1602179055506106c0806100606000396000f3fe60806040526004361061004e5760003560e01c80636f9fb98a1461005a578063715018a6146100855780638da5cb5b1461009c578063f274c897146100c7578063f2fde38b146100e357610055565b3661005557005b600080fd5b34801561006657600080fd5b5061006f61010c565b60405161007c91906105c0565b60405180910390f35b34801561009157600080fd5b5061009a610114565b005b3480156100a857600080fd5b506100b16101af565b6040516100be9190610565565b60405180910390f35b6100e160048036038101906100dc919061045c565b6101d3565b005b3480156100ef57600080fd5b5061010a60048036038101906101059190610433565b61031f565b005b600047905090565b60008054906101000a900473ffffffffffffffffffffffffffffffffffffffff1673ffffffffffffffffffffffffffffffffffffffff163373ffffffffffffffffffffffffffffffffffffffff161461016c57600080fd5b60008060006101000a81548173ffffffffffffffffffffffffffffffffffffffff021916908373ffffffffffffffffffffffffffffffffffffffff160217905550565b60008054906101000a900473ffffffffffffffffffffffffffffffffffffffff1681565b60008054906101000a900473ffffffffffffffffffffffffffffffffffffffff1673ffffffffffffffffffffffffffffffffffffffff163373ffffffffffffffffffffffffffffffffffffffff161461022b57600080fd5b4781111561026e576040517f08c379a000000000000000000000000000000000000000000000000000000000815260040161026590610580565b60405180910390fd5b60008273ffffffffffffffffffffffffffffffffffffffff168260405161029490610550565b60006040518083038185875af1925050503d80600081146102d1576040519150601f19603f3d011682016040523d82523d6000602084013e6102d6565b606091505b505090508061031a576040517f08c379a0000000000000000000000000000000000000000000000000000000008152600401610311906105a0565b60405180910390fd5b505050565b60008054906101000a900473ffffffffffffffffffffffffffffffffffffffff1673ffffffffffffffffffffffffffffffffffffffff163373ffffffffffffffffffffffffffffffffffffffff161461037757600080fd5b600073ffffffffffffffffffffffffffffffffffffffff168173ffffffffffffffffffffffffffffffffffffffff1614156103b157600080fd5b806000806101000a81548173ffffffffffffffffffffffffffffffffffffffff021916908373ffffffffffffffffffffffffffffffffffffffff16021790555050565b60008135905061040381610645565b92915050565b6000813590506104188161065c565b92915050565b60008135905061042d81610673565b92915050565b60006020828403121561044557600080fd5b6000610453848285016103f4565b91505092915050565b6000806040838503121561046f57600080fd5b600061047d85828601610409565b925050602061048e8582860161041e565b9150509250929050565b6104a1816105f7565b82525050565b60006104b4601e836105e6565b91507f4e6f7420656e6f756768204554487320696e207468652073746f7261676500006000830152602082019050919050565b60006104f46000836105db565b9150600082019050919050565b600061050e6010836105e6565b91507f5472616e73666572206661696c65642e000000000000000000000000000000006000830152602082019050919050565b61054a8161063b565b82525050565b600061055b826104e7565b9150819050919050565b600060208201905061057a6000830184610498565b92915050565b60006020820190508181036000830152610599816104a7565b9050919050565b600060208201905081810360008301526105b981610501565b9050919050565b60006020820190506105d56000830184610541565b92915050565b600081905092915050565b600082825260208201905092915050565b60006106028261061b565b9050919050565b60006106148261061b565b9050919050565b600073ffffffffffffffffffffffffffffffffffffffff82169050919050565b6000819050919050565b61064e816105f7565b811461065957600080fd5b50565b61066581610609565b811461067057600080fd5b50565b61067c8161063b565b811461068757600080fd5b5056fea26469706673582212205aeed0e7be1d068f1f74b7e095525939bea8ec2a6b5468569bc25f0edfbb971164736f6c63430008000033",
  "immutableReferences": {},
  "source": "// SPDX-License-Identifier: MIT\npragma solidity ^0.8.0;\n\nimport \"./Ownable.sol\";\n\ncontract FeesStorage is Ownable {\n    /**\n     * @dev Fallback function\n     */\n    receive() external payable {}\n\n    /**\n     * @dev Allows the `owner` to withdraw the selected `_amount`\n     * @param _recipient Address of the recipient\n     * @param _amount Amount of ETHs being withdrawed\n     */\n    function withdrawMoney(address payable _recipient, uint256 _amount)\n        external\n        payable\n        onlyOwner\n    {\n        require(\n            _amount <= address(this).balance,\n            \"Not enough ETHs in the storage\"\n        );\n\n        (bool success, ) = payable(_recipient).call{value: _amount}(\"\");\n        require(success, \"Transfer failed.\");\n    }\n\n    /**\n     * @dev Retrieve the balance of the contract\n     */\n    function getContractBalance() external view returns (uint256) {\n        return address(this).balance;\n    }\n}\n",
  "sourcePath": "/Users/niccolofant/dev/Solidity/Gamely/contracts/FeesStorage.sol",
  "compiler": {
    "name": "solc",
    "version": "0.8.0+commit.c7dfd78e.Emscripten.clang"
  },
  "schemaVersion": "3.4.3",
  "updatedAt": "2021-09-14T11:28:54.575Z",
  "devdoc": {
    "kind": "dev",
    "methods": {
      "getContractBalance()": {
        "details": "Retrieve the balance of the contract"
      },
      "renounceOwnership()": {
        "details": "Allows the current owner to relinquish control of the contract."
      },
      "transferOwnership(address)": {
        "details": "Allows the current owner to transfer control of the contract to a newOwner.",
        "params": {
          "newOwner": "The address to transfer ownership to."
        }
      },
      "withdrawMoney(address,uint256)": {
        "details": "Allows the `owner` to withdraw the selected `_amount`",
        "params": {
          "_amount": "Amount of ETHs being withdrawed",
          "_recipient": "Address of the recipient"
        }
      }
    },
    "version": 1
  },
  "userdoc": {
    "kind": "user",
    "methods": {},
    "version": 1
  }
}