{
  "contractName": "Game",
  "abi": [
    {
      "inputs": [
        {
          "internalType": "address",
          "name": "_gameCreator",
          "type": "address"
        },
        {
          "internalType": "address payable",
          "name": "_owner",
          "type": "address"
        }
      ],
      "stateMutability": "nonpayable",
      "type": "constructor"
    },
    {
      "anonymous": false,
      "inputs": [
        {
          "indexed": true,
          "internalType": "address",
          "name": "player1",
          "type": "address"
        },
        {
          "indexed": true,
          "internalType": "address",
          "name": "player2",
          "type": "address"
        },
        {
          "indexed": false,
          "internalType": "uint256",
          "name": "prizePool",
          "type": "uint256"
        }
      ],
      "name": "GameAccepted",
      "type": "event"
    },
    {
      "anonymous": false,
      "inputs": [],
      "name": "GameCancelled",
      "type": "event"
    },
    {
      "anonymous": false,
      "inputs": [
        {
          "indexed": true,
          "internalType": "address",
          "name": "player1",
          "type": "address"
        },
        {
          "indexed": false,
          "internalType": "uint256",
          "name": "prizePool",
          "type": "uint256"
        }
      ],
      "name": "GameCreated",
      "type": "event"
    },
    {
      "anonymous": false,
      "inputs": [
        {
          "indexed": true,
          "internalType": "address",
          "name": "winner",
          "type": "address"
        },
        {
          "indexed": false,
          "internalType": "uint256",
          "name": "prizePool",
          "type": "uint256"
        }
      ],
      "name": "GameEnded",
      "type": "event"
    },
    {
      "anonymous": false,
      "inputs": [
        {
          "indexed": false,
          "internalType": "address",
          "name": "sender",
          "type": "address"
        },
        {
          "indexed": false,
          "internalType": "uint256",
          "name": "value",
          "type": "uint256"
        }
      ],
      "name": "Received",
      "type": "event"
    },
    {
      "inputs": [],
      "name": "bet",
      "outputs": [
        {
          "internalType": "uint256",
          "name": "",
          "type": "uint256"
        }
      ],
      "stateMutability": "view",
      "type": "function"
    },
    {
      "inputs": [],
      "name": "owner",
      "outputs": [
        {
          "internalType": "address payable",
          "name": "",
          "type": "address"
        }
      ],
      "stateMutability": "view",
      "type": "function"
    },
    {
      "inputs": [],
      "name": "player1",
      "outputs": [
        {
          "internalType": "address payable",
          "name": "",
          "type": "address"
        }
      ],
      "stateMutability": "view",
      "type": "function"
    },
    {
      "inputs": [],
      "name": "player2",
      "outputs": [
        {
          "internalType": "address payable",
          "name": "",
          "type": "address"
        }
      ],
      "stateMutability": "view",
      "type": "function"
    },
    {
      "inputs": [],
      "name": "prizePool",
      "outputs": [
        {
          "internalType": "uint256",
          "name": "",
          "type": "uint256"
        }
      ],
      "stateMutability": "view",
      "type": "function"
    },
    {
      "stateMutability": "payable",
      "type": "receive"
    },
    {
      "inputs": [],
      "name": "createGame",
      "outputs": [],
      "stateMutability": "payable",
      "type": "function"
    },
    {
      "inputs": [],
      "name": "joinGame",
      "outputs": [],
      "stateMutability": "payable",
      "type": "function"
    },
    {
      "inputs": [],
      "name": "deleteGame",
      "outputs": [],
      "stateMutability": "nonpayable",
      "type": "function"
    },
    {
      "inputs": [
        {
          "internalType": "address payable",
          "name": "_winner",
          "type": "address"
        },
        {
          "internalType": "address payable",
          "name": "_storageAddress",
          "type": "address"
        }
      ],
      "name": "declareWinner",
      "outputs": [],
      "stateMutability": "nonpayable",
      "type": "function"
    },
    {
      "inputs": [],
      "name": "cancelGame",
      "outputs": [],
      "stateMutability": "nonpayable",
      "type": "function"
    }
  ],
  "bytecode": "0x60806040523480156200001157600080fd5b5060405162001868380380620018688339818101604052810190620000379190620000ee565b806000806101000a81548173ffffffffffffffffffffffffffffffffffffffff021916908373ffffffffffffffffffffffffffffffffffffffff16021790555081600360006101000a81548173ffffffffffffffffffffffffffffffffffffffff021916908373ffffffffffffffffffffffffffffffffffffffff1602179055505050620001ab565b600081519050620000d18162000177565b92915050565b600081519050620000e88162000191565b92915050565b600080604083850312156200010257600080fd5b60006200011285828601620000c0565b92505060206200012585828601620000d7565b9150509250929050565b60006200013c8262000157565b9050919050565b6000620001508262000157565b9050919050565b600073ffffffffffffffffffffffffffffffffffffffff82169050919050565b62000182816200012f565b81146200018e57600080fd5b50565b6200019c8162000143565b8114620001a857600080fd5b50565b6116ad80620001bb6000396000f3fe6080604052600436106100955760003560e01c80639083d3fa116100595780639083d3fa14610190578063c8011be9146101b9578063d30895e4146101d0578063d4f77b1c146101fb578063d84c1ac914610205576100d5565b806311610c25146100da57806359a5f12d14610105578063719ce73e146101305780637255d7291461015b5780638da5cb5b14610165576100d5565b366100d5577f88a5966d370b9919b20f3e2c13ff65706f196a4e32cc2c12bf57088f8852587433346040516100cb92919061135f565b60405180910390a1005b600080fd5b3480156100e657600080fd5b506100ef61021c565b6040516100fc9190611468565b60405180910390f35b34801561011157600080fd5b5061011a610222565b6040516101279190611344565b60405180910390f35b34801561013c57600080fd5b50610145610248565b6040516101529190611468565b60405180910390f35b61016361024e565b005b34801561017157600080fd5b5061017a6103b5565b6040516101879190611344565b60405180910390f35b34801561019c57600080fd5b506101b760048036038101906101b29190611054565b6103d9565b005b3480156101c557600080fd5b506101ce610708565b005b3480156101dc57600080fd5b506101e561095e565b6040516101f29190611344565b60405180910390f35b610203610984565b005b34801561021157600080fd5b5061021a610c4b565b005b60025481565b600460009054906101000a900473ffffffffffffffffffffffffffffffffffffffff1681565b60015481565b600360009054906101000a900473ffffffffffffffffffffffffffffffffffffffff1673ffffffffffffffffffffffffffffffffffffffff163373ffffffffffffffffffffffffffffffffffffffff16146102de576040517f08c379a00000000000000000000000000000000000000000000000000000000081526004016102d590611388565b60405180910390fd5b60003411610321576040517f08c379a0000000000000000000000000000000000000000000000000000000008152600401610318906113e8565b60405180910390fd5b3460016000828254610333919061149f565b9250508190555034600281905550600360009054906101000a900473ffffffffffffffffffffffffffffffffffffffff1673ffffffffffffffffffffffffffffffffffffffff167f306841c3fce8498c2d9b7194b8da4c04d03847394e237b625ce6d029b107f0776001546040516103ab9190611468565b60405180910390a2565b60008054906101000a900473ffffffffffffffffffffffffffffffffffffffff1681565b60008054906101000a900473ffffffffffffffffffffffffffffffffffffffff1673ffffffffffffffffffffffffffffffffffffffff163373ffffffffffffffffffffffffffffffffffffffff1614610467576040517f08c379a000000000000000000000000000000000000000000000000000000000815260040161045e90611388565b60405180910390fd5b600073ffffffffffffffffffffffffffffffffffffffff16600360009054906101000a900473ffffffffffffffffffffffffffffffffffffffff1673ffffffffffffffffffffffffffffffffffffffff16141580156105155750600073ffffffffffffffffffffffffffffffffffffffff16600460009054906101000a900473ffffffffffffffffffffffffffffffffffffffff1673ffffffffffffffffffffffffffffffffffffffff1614155b61051e57600080fd5b600360009054906101000a900473ffffffffffffffffffffffffffffffffffffffff1673ffffffffffffffffffffffffffffffffffffffff168273ffffffffffffffffffffffffffffffffffffffff1614806105c75750600460009054906101000a900473ffffffffffffffffffffffffffffffffffffffff1673ffffffffffffffffffffffffffffffffffffffff168273ffffffffffffffffffffffffffffffffffffffff16145b6105d057600080fd5b6000600260646001546105e391906114f5565b6105ed9190611526565b90506105f98282610f8e565b60008373ffffffffffffffffffffffffffffffffffffffff16826001546106209190611580565b60405161062c9061132f565b60006040518083038185875af1925050503d8060008114610669576040519150601f19603f3d011682016040523d82523d6000602084013e61066e565b606091505b50509050806106b2576040517f08c379a00000000000000000000000000000000000000000000000000000000081526004016106a990611408565b60405180910390fd5b8373ffffffffffffffffffffffffffffffffffffffff167fd4ba6fec82d9b0e8ffe50b9fed9e4be3b25c984ce1e0e016405a5528726e8a2c6001546040516106fa9190611468565b60405180910390a250505050565b600360009054906101000a900473ffffffffffffffffffffffffffffffffffffffff1673ffffffffffffffffffffffffffffffffffffffff163373ffffffffffffffffffffffffffffffffffffffff1614610798576040517f08c379a000000000000000000000000000000000000000000000000000000000815260040161078f90611388565b60405180910390fd5b600073ffffffffffffffffffffffffffffffffffffffff16600460009054906101000a900473ffffffffffffffffffffffffffffffffffffffff1673ffffffffffffffffffffffffffffffffffffffff1614610829576040517f08c379a000000000000000000000000000000000000000000000000000000000815260040161082090611448565b60405180910390fd5b6000600360009054906101000a900473ffffffffffffffffffffffffffffffffffffffff1673ffffffffffffffffffffffffffffffffffffffff166002546040516108739061132f565b60006040518083038185875af1925050503d80600081146108b0576040519150601f19603f3d011682016040523d82523d6000602084013e6108b5565b606091505b50509050806108f9576040517f08c379a00000000000000000000000000000000000000000000000000000000081526004016108f090611408565b60405180910390fd5b7f1dc43dc4f1689be1269b3e80407b3401b4cb752c02591cac32e47dfd758af27d60405160405180910390a160008054906101000a900473ffffffffffffffffffffffffffffffffffffffff1673ffffffffffffffffffffffffffffffffffffffff16ff5b600360009054906101000a900473ffffffffffffffffffffffffffffffffffffffff1681565b600460009054906101000a900473ffffffffffffffffffffffffffffffffffffffff1673ffffffffffffffffffffffffffffffffffffffff163373ffffffffffffffffffffffffffffffffffffffff1614158015610a305750600360009054906101000a900473ffffffffffffffffffffffffffffffffffffffff1673ffffffffffffffffffffffffffffffffffffffff163373ffffffffffffffffffffffffffffffffffffffff1614155b610a6f576040517f08c379a0000000000000000000000000000000000000000000000000000000008152600401610a6690611428565b60405180910390fd5b600073ffffffffffffffffffffffffffffffffffffffff16600460009054906101000a900473ffffffffffffffffffffffffffffffffffffffff1673ffffffffffffffffffffffffffffffffffffffff1614610b00576040517f08c379a0000000000000000000000000000000000000000000000000000000008152600401610af7906113a8565b60405180910390fd5b6002543414610b44576040517f08c379a0000000000000000000000000000000000000000000000000000000008152600401610b3b906113c8565b60405180910390fd5b33600460006101000a81548173ffffffffffffffffffffffffffffffffffffffff021916908373ffffffffffffffffffffffffffffffffffffffff1602179055503460016000828254610b97919061149f565b92505081905550600460009054906101000a900473ffffffffffffffffffffffffffffffffffffffff1673ffffffffffffffffffffffffffffffffffffffff16600360009054906101000a900473ffffffffffffffffffffffffffffffffffffffff1673ffffffffffffffffffffffffffffffffffffffff167f607220a70efb29c3770f9cb0f0412c450dafc898e565ab62e7fb13b543a9b8f5600154604051610c419190611468565b60405180910390a3565b60008054906101000a900473ffffffffffffffffffffffffffffffffffffffff1673ffffffffffffffffffffffffffffffffffffffff163373ffffffffffffffffffffffffffffffffffffffff1614610cd9576040517f08c379a0000000000000000000000000000000000000000000000000000000008152600401610cd090611388565b60405180910390fd5b600073ffffffffffffffffffffffffffffffffffffffff16600360009054906101000a900473ffffffffffffffffffffffffffffffffffffffff1673ffffffffffffffffffffffffffffffffffffffff1614610e01576000600360009054906101000a900473ffffffffffffffffffffffffffffffffffffffff1673ffffffffffffffffffffffffffffffffffffffff16600254604051610d799061132f565b60006040518083038185875af1925050503d8060008114610db6576040519150601f19603f3d011682016040523d82523d6000602084013e610dbb565b606091505b5050905080610dff576040517f08c379a0000000000000000000000000000000000000000000000000000000008152600401610df690611408565b60405180910390fd5b505b600073ffffffffffffffffffffffffffffffffffffffff16600460009054906101000a900473ffffffffffffffffffffffffffffffffffffffff1673ffffffffffffffffffffffffffffffffffffffff1614610f29576000600460009054906101000a900473ffffffffffffffffffffffffffffffffffffffff1673ffffffffffffffffffffffffffffffffffffffff16600254604051610ea19061132f565b60006040518083038185875af1925050503d8060008114610ede576040519150601f19603f3d011682016040523d82523d6000602084013e610ee3565b606091505b5050905080610f27576040517f08c379a0000000000000000000000000000000000000000000000000000000008152600401610f1e90611408565b60405180910390fd5b505b7f1dc43dc4f1689be1269b3e80407b3401b4cb752c02591cac32e47dfd758af27d60405160405180910390a160008054906101000a900473ffffffffffffffffffffffffffffffffffffffff1673ffffffffffffffffffffffffffffffffffffffff16ff5b60008273ffffffffffffffffffffffffffffffffffffffff1682604051610fb49061132f565b60006040518083038185875af1925050503d8060008114610ff1576040519150601f19603f3d011682016040523d82523d6000602084013e610ff6565b606091505b505090508061103a576040517f08c379a000000000000000000000000000000000000000000000000000000000815260040161103190611408565b60405180910390fd5b505050565b60008135905061104e81611660565b92915050565b6000806040838503121561106757600080fd5b60006110758582860161103f565b92505060206110868582860161103f565b9150509250929050565b611099816115c6565b82525050565b6110a8816115b4565b82525050565b60006110bb60318361148e565b91507f596f7520646f6e2774206861766520746865207065726d697373696f6e73207460008301527f6f20646f207468697320616374696f6e2e0000000000000000000000000000006020830152604082019050919050565b600061112160218361148e565b91507f536f6d65626f647920697320616c726561647920696e20746869732067616d6560008301527f2e000000000000000000000000000000000000000000000000000000000000006020830152604082019050919050565b600061118760388361148e565b91507f596f75206d757374207374616b65207468652073616d6520616d6f756e74206f60008301527f66204554487320617320796f7572206f70706f6e656e742e00000000000000006020830152604082019050919050565b60006111ed60198361148e565b91507f596f75206d757374207374616b6520736f6d6520455448732e000000000000006000830152602082019050919050565b600061122d600083611483565b9150600082019050919050565b600061124760108361148e565b91507f5472616e73666572206661696c65642e000000000000000000000000000000006000830152602082019050919050565b6000611287601d8361148e565b91507f596f752061726520616c726561647920696e20746869732067616d652e0000006000830152602082019050919050565b60006112c7602b8361148e565b91507f47616d6520616c72656164792061636365707465642e20596f752063616e277460008301527f2064656c6574652069742e0000000000000000000000000000000000000000006020830152604082019050919050565b611329816115f8565b82525050565b600061133a82611220565b9150819050919050565b60006020820190506113596000830184611090565b92915050565b6000604082019050611374600083018561109f565b6113816020830184611320565b9392505050565b600060208201905081810360008301526113a1816110ae565b9050919050565b600060208201905081810360008301526113c181611114565b9050919050565b600060208201905081810360008301526113e18161117a565b9050919050565b60006020820190508181036000830152611401816111e0565b9050919050565b600060208201905081810360008301526114218161123a565b9050919050565b600060208201905081810360008301526114418161127a565b9050919050565b60006020820190508181036000830152611461816112ba565b9050919050565b600060208201905061147d6000830184611320565b92915050565b600081905092915050565b600082825260208201905092915050565b60006114aa826115f8565b91506114b5836115f8565b9250827fffffffffffffffffffffffffffffffffffffffffffffffffffffffffffffffff038211156114ea576114e9611602565b5b828201905092915050565b6000611500826115f8565b915061150b836115f8565b92508261151b5761151a611631565b5b828204905092915050565b6000611531826115f8565b915061153c836115f8565b9250817fffffffffffffffffffffffffffffffffffffffffffffffffffffffffffffffff048311821515161561157557611574611602565b5b828202905092915050565b600061158b826115f8565b9150611596836115f8565b9250828210156115a9576115a8611602565b5b828203905092915050565b60006115bf826115d8565b9050919050565b60006115d1826115d8565b9050919050565b600073ffffffffffffffffffffffffffffffffffffffff82169050919050565b6000819050919050565b7f4e487b7100000000000000000000000000000000000000000000000000000000600052601160045260246000fd5b7f4e487b7100000000000000000000000000000000000000000000000000000000600052601260045260246000fd5b611669816115c6565b811461167457600080fd5b5056fea2646970667358221220cc96368e921d6955ae539f48374fa4c59751d639607a6b6d335c611b974309e264736f6c63430008000033",
  "immutableReferences": {},
  "source": "// SPDX-License-Identifier: MIT\n\npragma solidity ^0.8.0;\n\nimport \"./Ownable.sol\";\nimport \"./FeesStorage.sol\";\n\ncontract GameFactory is Ownable {\n    address[] public deployedGames;\n\n    event GameCreated(Game game);\n\n    /**\n     * @dev Allows a player to instanciate a new game\n     */\n    function instanciateGame() external {\n        address payable newGame = payable(\n            address(new Game(msg.sender, payable(owner)))\n        );\n        deployedGames.push(newGame);\n    }\n\n    /**\n     * @dev Returns an array containing all the deployed games\n     */\n    function getDeployedGames() external view returns (address[] memory) {\n        return deployedGames;\n    }\n}\n\ncontract Game {\n    address payable public owner;\n    uint256 public prizePool;\n    uint256 public bet;\n    address payable public player1;\n    address payable public player2;\n\n    event Received(address sender, uint256 value);\n    event GameCreated(address indexed player1, uint256 prizePool);\n    event GameAccepted(\n        address indexed player1,\n        address indexed player2,\n        uint256 prizePool\n    );\n    event GameEnded(address indexed winner, uint256 prizePool);\n    event GameCancelled();\n\n    /**\n     * @dev Throws if called by any account other than the owner.\n     */\n    modifier onlyOwner() {\n        require(\n            msg.sender == owner,\n            \"You don't have the permissions to do this action.\"\n        );\n        _;\n    }\n\n    /**\n     * @dev Throws if called by any account other than the game creator.\n     */\n    modifier onlyGameCreator() {\n        require(\n            msg.sender == player1,\n            \"You don't have the permissions to do this action.\"\n        );\n        _;\n    }\n\n    /**\n     * @dev Throws if called when the game is already full.\n     */\n    modifier onlyIfPossible() {\n        require(\n            msg.sender != player2 && msg.sender != player1,\n            \"You are already in this game.\"\n        );\n        require(player2 == address(0), \"Somebody is already in this game.\");\n        _;\n    }\n\n    /**\n     * @dev The Game constructor sets `player1` of the Game to the `_gameCreator`\n     * and the original `owner` of the contract to the address that deployed the GameFactory\n     * @param _gameCreator The address of the account who created the Game\n     * @param _owner The address of the owner of the GameFactory\n     */\n    constructor(address _gameCreator, address payable _owner) {\n        owner = _owner;\n        player1 = payable(_gameCreator);\n    }\n\n    /**\n     * @dev Allows the account that instanciate the game to create the game, staking some ETHs\n     */\n    function createGame() external payable onlyGameCreator {\n        require(msg.value > 0, \"You must stake some ETHs.\");\n        prizePool += msg.value;\n        bet = msg.value;\n        emit GameCreated(player1, prizePool);\n    }\n\n    /**\n     * @dev Fallback function\n     */\n    receive() external payable {\n        emit Received(msg.sender, msg.value);\n    }\n\n    /**\n     * @dev Allows a player to join an existing challenge\n     */\n    function joinGame() external payable onlyIfPossible {\n        require(\n            msg.value == bet,\n            \"You must stake the same amount of ETHs as your opponent.\"\n        );\n        player2 = payable(msg.sender);\n        prizePool += msg.value;\n        emit GameAccepted(player1, player2, prizePool);\n    }\n\n    /**\n     * @dev Allows the creator of the game to delete it, only if it hasn't already been accepted by an opponent\n     */\n    function deleteGame() external onlyGameCreator {\n        require(\n            player2 == address(0),\n            \"Game already accepted. You can't delete it.\"\n        );\n        (bool success, ) = player1.call{value: bet}(\"\");\n        require(success, \"Transfer failed.\");\n        emit GameCancelled();\n        selfdestruct(owner);\n    }\n\n    /**\n     * @dev Declares the winner of the Game and resets state variables\n     * @param _winner Address of the winner\n     * @param _storageAddress Address of the account that store the fees\n     */\n    function declareWinner(\n        address payable _winner,\n        address payable _storageAddress\n    ) external onlyOwner {\n        require(player1 != address(0) && player2 != address(0));\n        require(_winner == player1 || _winner == player2);\n        uint256 fee = (prizePool / 100) * 2;\n        _storeFees(payable(address(_storageAddress)), fee);\n        (bool success, ) = _winner.call{value: prizePool - fee}(\"\");\n        require(success, \"Transfer failed.\");\n        emit GameEnded(_winner, prizePool);\n        //selfdestruct(owner);\n    }\n\n    /**\n     * @dev Stores the fee's `_amount` to another contract at address `_storageAddress`\n     * @param _storageAddress Address of the account that store the fees\n     * @param _amount Amount of ETHs to store in the storage\n     */\n    function _storeFees(address payable _storageAddress, uint256 _amount)\n        internal\n    {\n        (bool success, ) = _storageAddress.call{value: _amount}(\"\");\n        require(success, \"Transfer failed.\");\n    }\n\n    /**\n     * @dev Allows the `owner` of the Factory to cancel the game and give back the bets\n     */\n    function cancelGame() external onlyOwner {\n        if (player1 != address(0)) {\n            (bool success, ) = player1.call{value: bet}(\"\");\n            require(success, \"Transfer failed.\");\n        }\n        if (player2 != address(0)) {\n            (bool success, ) = player2.call{value: bet}(\"\");\n            require(success, \"Transfer failed.\");\n        }\n        emit GameCancelled();\n        selfdestruct(owner);\n    }\n}\n",
  "sourcePath": "/Users/niccolofant/dev/Solidity/Gamely/contracts/Game.sol",
  "compiler": {
    "name": "solc",
    "version": "0.8.0+commit.c7dfd78e.Emscripten.clang"
  },
  "schemaVersion": "3.4.3",
  "updatedAt": "2021-10-01T14:27:57.284Z",
  "devdoc": {
    "kind": "dev",
    "methods": {
      "cancelGame()": {
        "details": "Allows the `owner` of the Factory to cancel the game and give back the bets"
      },
      "constructor": {
        "details": "The Game constructor sets `player1` of the Game to the `_gameCreator` and the original `owner` of the contract to the address that deployed the GameFactory",
        "params": {
          "_gameCreator": "The address of the account who created the Game",
          "_owner": "The address of the owner of the GameFactory"
        }
      },
      "createGame()": {
        "details": "Allows the account that instanciate the game to create the game, staking some ETHs"
      },
      "declareWinner(address,address)": {
        "details": "Declares the winner of the Game and resets state variables",
        "params": {
          "_storageAddress": "Address of the account that store the fees",
          "_winner": "Address of the winner"
        }
      },
      "deleteGame()": {
        "details": "Allows the creator of the game to delete it, only if it hasn't already been accepted by an opponent"
      },
      "joinGame()": {
        "details": "Allows a player to join an existing challenge"
      }
    },
    "version": 1
  },
  "userdoc": {
    "kind": "user",
    "methods": {},
    "version": 1
  }
}