{
  "contractName": "Game",
  "abi": [
    {
      "inputs": [
        {
          "internalType": "address",
          "name": "_gameCreator",
          "type": "address"
        },
        {
          "internalType": "address",
          "name": "_owner",
          "type": "address"
        }
      ],
      "stateMutability": "payable",
      "type": "constructor"
    },
    {
      "anonymous": false,
      "inputs": [
        {
          "indexed": true,
          "internalType": "bytes32",
          "name": "gameId",
          "type": "bytes32"
        },
        {
          "indexed": true,
          "internalType": "address",
          "name": "player1",
          "type": "address"
        },
        {
          "indexed": true,
          "internalType": "address",
          "name": "player2",
          "type": "address"
        },
        {
          "indexed": false,
          "internalType": "uint256",
          "name": "prizePool",
          "type": "uint256"
        }
      ],
      "name": "GameAccepted",
      "type": "event"
    },
    {
      "anonymous": false,
      "inputs": [
        {
          "indexed": true,
          "internalType": "bytes32",
          "name": "gameId",
          "type": "bytes32"
        },
        {
          "indexed": true,
          "internalType": "address",
          "name": "player1",
          "type": "address"
        },
        {
          "indexed": false,
          "internalType": "uint256",
          "name": "prizePool",
          "type": "uint256"
        }
      ],
      "name": "GameCreated",
      "type": "event"
    },
    {
      "anonymous": false,
      "inputs": [
        {
          "indexed": true,
          "internalType": "bytes32",
          "name": "gameId",
          "type": "bytes32"
        },
        {
          "indexed": true,
          "internalType": "address",
          "name": "winner",
          "type": "address"
        },
        {
          "indexed": false,
          "internalType": "uint256",
          "name": "prizePool",
          "type": "uint256"
        }
      ],
      "name": "GameEnded",
      "type": "event"
    },
    {
      "anonymous": false,
      "inputs": [
        {
          "indexed": false,
          "internalType": "address",
          "name": "sender",
          "type": "address"
        },
        {
          "indexed": false,
          "internalType": "uint256",
          "name": "value",
          "type": "uint256"
        }
      ],
      "name": "Received",
      "type": "event"
    },
    {
      "inputs": [],
      "name": "bet",
      "outputs": [
        {
          "internalType": "uint256",
          "name": "",
          "type": "uint256"
        }
      ],
      "stateMutability": "view",
      "type": "function"
    },
    {
      "inputs": [],
      "name": "gameId",
      "outputs": [
        {
          "internalType": "bytes32",
          "name": "",
          "type": "bytes32"
        }
      ],
      "stateMutability": "view",
      "type": "function"
    },
    {
      "inputs": [],
      "name": "owner",
      "outputs": [
        {
          "internalType": "address",
          "name": "",
          "type": "address"
        }
      ],
      "stateMutability": "view",
      "type": "function"
    },
    {
      "inputs": [],
      "name": "player1",
      "outputs": [
        {
          "internalType": "address payable",
          "name": "",
          "type": "address"
        }
      ],
      "stateMutability": "view",
      "type": "function"
    },
    {
      "inputs": [],
      "name": "player2",
      "outputs": [
        {
          "internalType": "address payable",
          "name": "",
          "type": "address"
        }
      ],
      "stateMutability": "view",
      "type": "function"
    },
    {
      "inputs": [],
      "name": "prizePool",
      "outputs": [
        {
          "internalType": "uint256",
          "name": "",
          "type": "uint256"
        }
      ],
      "stateMutability": "view",
      "type": "function"
    },
    {
      "stateMutability": "payable",
      "type": "receive"
    },
    {
      "inputs": [],
      "name": "joinGame",
      "outputs": [],
      "stateMutability": "payable",
      "type": "function"
    },
    {
      "inputs": [],
      "name": "deleteGame",
      "outputs": [],
      "stateMutability": "payable",
      "type": "function"
    },
    {
      "inputs": [
        {
          "internalType": "address payable",
          "name": "_winner",
          "type": "address"
        }
      ],
      "name": "_declareWinner",
      "outputs": [],
      "stateMutability": "payable",
      "type": "function"
    },
    {
      "inputs": [],
      "name": "cancelGame",
      "outputs": [],
      "stateMutability": "payable",
      "type": "function"
    }
  ],
  "bytecode": "0x60806040526040516200167938038062001679833981810160405281019062000029919062000171565b806000806101000a81548173ffffffffffffffffffffffffffffffffffffffff021916908373ffffffffffffffffffffffffffffffffffffffff1602179055508143406040516020016200007f929190620001f9565b6040516020818303038152906040528051906020012060018190555081600460006101000a81548173ffffffffffffffffffffffffffffffffffffffff021916908373ffffffffffffffffffffffffffffffffffffffff160217905550600460009054906101000a900473ffffffffffffffffffffffffffffffffffffffff1673ffffffffffffffffffffffffffffffffffffffff166001547e06379582cf33f082958411b512c6d1b9888095de98bc1f9532e3f1653361526002546040516200014a919062000229565b60405180910390a35050620002e7565b6000815190506200016b81620002cd565b92915050565b600080604083850312156200018557600080fd5b600062000195858286016200015a565b9250506020620001a8858286016200015a565b9150509250929050565b620001c7620001c18262000246565b6200028e565b82525050565b620001e2620001dc826200025a565b620002a2565b82525050565b620001f38162000284565b82525050565b6000620002078285620001b2565b601482019150620002198284620001cd565b6020820191508190509392505050565b6000602082019050620002406000830184620001e8565b92915050565b6000620002538262000264565b9050919050565b6000819050919050565b600073ffffffffffffffffffffffffffffffffffffffff82169050919050565b6000819050919050565b60006200029b82620002ac565b9050919050565b6000819050919050565b6000620002b982620002c0565b9050919050565b60008160601b9050919050565b620002d88162000246565b8114620002e457600080fd5b50565b61138280620002f76000396000f3fe6080604052600436106100955760003560e01c8063c8011be911610059578063c8011be9146101c2578063d30895e4146101cc578063d4f77b1c146101f7578063d7c81b5514610201578063d84c1ac91461022c576100f5565b806311610c25146100fa57806359a5f12d14610125578063719ce73e1461015057806377adb6f01461017b5780638da5cb5b14610197576100f5565b366100f55734600260008282546100ac919061116a565b92505081905550346003819055507f88a5966d370b9919b20f3e2c13ff65706f196a4e32cc2c12bf57088f8852587433346040516100eb92919061100f565b60405180910390a1005b600080fd5b34801561010657600080fd5b5061010f610236565b60405161011c9190611133565b60405180910390f35b34801561013157600080fd5b5061013a61023c565b6040516101479190610ff4565b60405180910390f35b34801561015c57600080fd5b50610165610262565b6040516101729190611133565b60405180910390f35b61019560048036038101906101909190610ced565b610268565b005b3480156101a357600080fd5b506101ac61048a565b6040516101b99190610fd9565b60405180910390f35b6101ca6104ae565b005b3480156101d857600080fd5b506101e161060a565b6040516101ee9190610ff4565b60405180910390f35b6101ff610630565b005b34801561020d57600080fd5b506102166108fa565b6040516102239190611038565b60405180910390f35b610234610900565b005b60035481565b600560009054906101000a900473ffffffffffffffffffffffffffffffffffffffff1681565b60025481565b60008054906101000a900473ffffffffffffffffffffffffffffffffffffffff1673ffffffffffffffffffffffffffffffffffffffff163373ffffffffffffffffffffffffffffffffffffffff16146102f6576040517f08c379a00000000000000000000000000000000000000000000000000000000081526004016102ed90611053565b60405180910390fd5b6000600154141561033c576040517f08c379a000000000000000000000000000000000000000000000000000000000815260040161033390611113565b60405180910390fd5b60006002606460025461034f91906111c0565b61035991906111f1565b9050610379738f0483125fcb9aaaefa9209d8e9d7b9c8b9fb90f82610c27565b60008273ffffffffffffffffffffffffffffffffffffffff16826002546103a0919061124b565b6040516103ac90610fc4565b60006040518083038185875af1925050503d80600081146103e9576040519150601f19603f3d011682016040523d82523d6000602084013e6103ee565b606091505b5050905080610432576040517f08c379a0000000000000000000000000000000000000000000000000000000008152600401610429906110b3565b60405180910390fd5b8273ffffffffffffffffffffffffffffffffffffffff166001547ff91f56a3ee1a546af57623d149e7046d11ea3eb2a69d952f3546b681742a04e060025460405161047d9190611133565b60405180910390a3505050565b60008054906101000a900473ffffffffffffffffffffffffffffffffffffffff1681565b600460009054906101000a900473ffffffffffffffffffffffffffffffffffffffff1673ffffffffffffffffffffffffffffffffffffffff163373ffffffffffffffffffffffffffffffffffffffff161461053e576040517f08c379a000000000000000000000000000000000000000000000000000000000815260040161053590611053565b60405180910390fd5b600073ffffffffffffffffffffffffffffffffffffffff16600560009054906101000a900473ffffffffffffffffffffffffffffffffffffffff1673ffffffffffffffffffffffffffffffffffffffff16146105cf576040517f08c379a00000000000000000000000000000000000000000000000000000000081526004016105c6906110f3565b60405180910390fd5b600460009054906101000a900473ffffffffffffffffffffffffffffffffffffffff1673ffffffffffffffffffffffffffffffffffffffff16ff5b600460009054906101000a900473ffffffffffffffffffffffffffffffffffffffff1681565b600560009054906101000a900473ffffffffffffffffffffffffffffffffffffffff1673ffffffffffffffffffffffffffffffffffffffff163373ffffffffffffffffffffffffffffffffffffffff16141580156106dc5750600460009054906101000a900473ffffffffffffffffffffffffffffffffffffffff1673ffffffffffffffffffffffffffffffffffffffff163373ffffffffffffffffffffffffffffffffffffffff1614155b61071b576040517f08c379a0000000000000000000000000000000000000000000000000000000008152600401610712906110d3565b60405180910390fd5b600073ffffffffffffffffffffffffffffffffffffffff16600560009054906101000a900473ffffffffffffffffffffffffffffffffffffffff1673ffffffffffffffffffffffffffffffffffffffff16146107ac576040517f08c379a00000000000000000000000000000000000000000000000000000000081526004016107a390611073565b60405180910390fd5b60035434146107f0576040517f08c379a00000000000000000000000000000000000000000000000000000000081526004016107e790611093565b60405180910390fd5b33600560006101000a81548173ffffffffffffffffffffffffffffffffffffffff021916908373ffffffffffffffffffffffffffffffffffffffff1602179055503460026000828254610843919061116a565b92505081905550600560009054906101000a900473ffffffffffffffffffffffffffffffffffffffff1673ffffffffffffffffffffffffffffffffffffffff16600460009054906101000a900473ffffffffffffffffffffffffffffffffffffffff1673ffffffffffffffffffffffffffffffffffffffff166001547f3260b8a907f304fe6855f0f3f1e6efffc0ae261ab322c7f326126155cb9bc1626002546040516108f09190611133565b60405180910390a4565b60015481565b60008054906101000a900473ffffffffffffffffffffffffffffffffffffffff1673ffffffffffffffffffffffffffffffffffffffff163373ffffffffffffffffffffffffffffffffffffffff161461098e576040517f08c379a000000000000000000000000000000000000000000000000000000000815260040161098590611053565b60405180910390fd5b6000600154141561099e57600080fd5b600073ffffffffffffffffffffffffffffffffffffffff16600460009054906101000a900473ffffffffffffffffffffffffffffffffffffffff1673ffffffffffffffffffffffffffffffffffffffff1614610ac6576000600460009054906101000a900473ffffffffffffffffffffffffffffffffffffffff1673ffffffffffffffffffffffffffffffffffffffff16600354604051610a3e90610fc4565b60006040518083038185875af1925050503d8060008114610a7b576040519150601f19603f3d011682016040523d82523d6000602084013e610a80565b606091505b5050905080610ac4576040517f08c379a0000000000000000000000000000000000000000000000000000000008152600401610abb906110b3565b60405180910390fd5b505b600073ffffffffffffffffffffffffffffffffffffffff16600560009054906101000a900473ffffffffffffffffffffffffffffffffffffffff1673ffffffffffffffffffffffffffffffffffffffff1614610bee576000600560009054906101000a900473ffffffffffffffffffffffffffffffffffffffff1673ffffffffffffffffffffffffffffffffffffffff16600354604051610b6690610fc4565b60006040518083038185875af1925050503d8060008114610ba3576040519150601f19603f3d011682016040523d82523d6000602084013e610ba8565b606091505b5050905080610bec576040517f08c379a0000000000000000000000000000000000000000000000000000000008152600401610be3906110b3565b60405180910390fd5b505b60008054906101000a900473ffffffffffffffffffffffffffffffffffffffff1673ffffffffffffffffffffffffffffffffffffffff16ff5b60008273ffffffffffffffffffffffffffffffffffffffff1682604051610c4d90610fc4565b60006040518083038185875af1925050503d8060008114610c8a576040519150601f19603f3d011682016040523d82523d6000602084013e610c8f565b606091505b5050905080610cd3576040517f08c379a0000000000000000000000000000000000000000000000000000000008152600401610cca906110b3565b60405180910390fd5b505050565b600081359050610ce781611335565b92915050565b600060208284031215610cff57600080fd5b6000610d0d84828501610cd8565b91505092915050565b610d1f81611291565b82525050565b610d2e8161127f565b82525050565b610d3d816112a3565b82525050565b6000610d50603183611159565b91507f596f7520646f6e2774206861766520746865207065726d697373696f6e73207460008301527f6f20646f207468697320616374696f6e2e0000000000000000000000000000006020830152604082019050919050565b6000610db6602183611159565b91507f536f6d65626f647920697320616c726561647920696e20746869732067616d6560008301527f2e000000000000000000000000000000000000000000000000000000000000006020830152604082019050919050565b6000610e1c603883611159565b91507f596f75206d757374207374616b65207468652073616d6520616d6f756e74206f60008301527f66204554487320617320796f7572206f70706f6e656e742e00000000000000006020830152604082019050919050565b6000610e8260008361114e565b9150600082019050919050565b6000610e9c601083611159565b91507f5472616e73666572206661696c65642e000000000000000000000000000000006000830152602082019050919050565b6000610edc601d83611159565b91507f596f752061726520616c726561647920696e20746869732067616d652e0000006000830152602082019050919050565b6000610f1c602b83611159565b91507f47616d6520616c72656164792061636365707465642e20596f752063616e277460008301527f2064656c6574652069742e0000000000000000000000000000000000000000006020830152604082019050919050565b6000610f82601383611159565b91507f47616d6520616c726561647920656e6465642e000000000000000000000000006000830152602082019050919050565b610fbe816112cd565b82525050565b6000610fcf82610e75565b9150819050919050565b6000602082019050610fee6000830184610d25565b92915050565b60006020820190506110096000830184610d16565b92915050565b60006040820190506110246000830185610d25565b6110316020830184610fb5565b9392505050565b600060208201905061104d6000830184610d34565b92915050565b6000602082019050818103600083015261106c81610d43565b9050919050565b6000602082019050818103600083015261108c81610da9565b9050919050565b600060208201905081810360008301526110ac81610e0f565b9050919050565b600060208201905081810360008301526110cc81610e8f565b9050919050565b600060208201905081810360008301526110ec81610ecf565b9050919050565b6000602082019050818103600083015261110c81610f0f565b9050919050565b6000602082019050818103600083015261112c81610f75565b9050919050565b60006020820190506111486000830184610fb5565b92915050565b600081905092915050565b600082825260208201905092915050565b6000611175826112cd565b9150611180836112cd565b9250827fffffffffffffffffffffffffffffffffffffffffffffffffffffffffffffffff038211156111b5576111b46112d7565b5b828201905092915050565b60006111cb826112cd565b91506111d6836112cd565b9250826111e6576111e5611306565b5b828204905092915050565b60006111fc826112cd565b9150611207836112cd565b9250817fffffffffffffffffffffffffffffffffffffffffffffffffffffffffffffffff04831182151516156112405761123f6112d7565b5b828202905092915050565b6000611256826112cd565b9150611261836112cd565b925082821015611274576112736112d7565b5b828203905092915050565b600061128a826112ad565b9050919050565b600061129c826112ad565b9050919050565b6000819050919050565b600073ffffffffffffffffffffffffffffffffffffffff82169050919050565b6000819050919050565b7f4e487b7100000000000000000000000000000000000000000000000000000000600052601160045260246000fd5b7f4e487b7100000000000000000000000000000000000000000000000000000000600052601260045260246000fd5b61133e81611291565b811461134957600080fd5b5056fea2646970667358221220c436802fdb9d56e77ad1046db7a09b03a2f292db8219265e8146f64ca36e0bfb64736f6c63430008000033",
  "immutableReferences": {},
  "source": "// SPDX-License-Identifier: MIT\n\npragma solidity ^0.8.0;\n\nimport \"./Ownable.sol\";\nimport \"./FeesStorage.sol\";\n\ncontract GameFactory is Ownable {\n    address[] public deployedGames;\n\n    event GameCreated(Game game);\n\n    /**\n     * @dev Allows a player to create a new game\n     */\n    function createGame() external payable {\n        require(msg.value > 0, \"You must stake some ETHs.\");\n\n        address payable newGame = payable(address(new Game(msg.sender, owner)));\n        (bool success, ) = newGame.call{value: msg.value}(\"\");\n\n        require(success, \"Transfer failed.\");\n\n        deployedGames.push(newGame);\n    }\n\n    /**\n     * @dev Returns an array containing all the deployed games\n     */\n    function getDeployedGames() external view returns (address[] memory) {\n        return deployedGames;\n    }\n}\n\ncontract Game {\n    address public owner;\n    bytes32 public gameId;\n    uint256 public prizePool;\n    uint256 public bet;\n    address payable public player1;\n    address payable public player2;\n\n    event Received(address sender, uint256 value);\n    event GameCreated(\n        bytes32 indexed gameId,\n        address indexed player1,\n        uint256 prizePool\n    );\n    event GameAccepted(\n        bytes32 indexed gameId,\n        address indexed player1,\n        address indexed player2,\n        uint256 prizePool\n    );\n    event GameEnded(\n        bytes32 indexed gameId,\n        address indexed winner,\n        uint256 prizePool\n    );\n\n    modifier onlyOwner() {\n        require(\n            msg.sender == owner,\n            \"You don't have the permissions to do this action.\"\n        );\n        _;\n    }\n\n    modifier onlyGameCreator() {\n        require(\n            msg.sender == player1,\n            \"You don't have the permissions to do this action.\"\n        );\n        _;\n    }\n\n    modifier onlyIfPossible() {\n        require(\n            msg.sender != player2 && msg.sender != player1,\n            \"You are already in this game.\"\n        );\n        require(player2 == address(0), \"Somebody is already in this game.\");\n        _;\n    }\n\n    /**\n     * @dev The Game constructor sets `player1` of the Game to the `_gameCreator`\n     * and the original `owner` of the contract to the address that deployed the GameFactory\n     * @param _gameCreator The address of the account who created the Game\n     * @param _owner The address of the owner of the GameFactory\n     */\n    constructor(address _gameCreator, address _owner) payable {\n        owner = _owner;\n        gameId = bytes32(\n            keccak256(abi.encodePacked(_gameCreator, blockhash(block.number)))\n        );\n        player1 = payable(_gameCreator);\n        emit GameCreated(gameId, player1, prizePool);\n    }\n\n    /**\n     * @dev Fallback function\n     */\n    receive() external payable {\n        prizePool += msg.value;\n        bet = msg.value;\n        emit Received(msg.sender, msg.value);\n    }\n\n    /**\n     * @dev Allows a player to join an existing challenge\n     */\n    function joinGame() external payable onlyIfPossible {\n        require(\n            msg.value == bet,\n            \"You must stake the same amount of ETHs as your opponent.\"\n        );\n\n        player2 = payable(msg.sender);\n        prizePool += msg.value;\n        emit GameAccepted(gameId, player1, player2, prizePool);\n    }\n\n    /**\n     * @dev Allows the creator of the game to delete it, only if it hasn't already been accepted by an opponent\n     */\n    function deleteGame() external payable onlyGameCreator {\n        require(\n            player2 == address(0),\n            \"Game already accepted. You can't delete it.\"\n        );\n        selfdestruct(player1);\n    }\n\n    /**\n     * @dev Declares the winner of the Game and resets state variables\n     * @param _winner Address of the winner\n     */\n    function _declareWinner(address payable _winner)\n        external\n        payable\n        onlyOwner\n    {\n        require(gameId != \"\", \"Game already ended.\");\n        uint256 fee = (prizePool / 100) * 2;\n        storeFees(payable(0x8f0483125FCb9aaAEFA9209D8E9d7b9C8B9Fb90F), fee);\n        (bool success, ) = _winner.call{value: prizePool - fee}(\"\");\n\n        require(success, \"Transfer failed.\");\n\n        emit GameEnded(gameId, _winner, prizePool);\n\n        //resetState();\n    }\n\n    /**\n     * @dev Stores the fee's `_amount` to another contract\n     * at address `_storageAddress`\n     */\n    function storeFees(address payable _storageAddress, uint256 _amount)\n        internal\n    {\n        (bool success, ) = _storageAddress.call{value: _amount}(\"\");\n        require(success, \"Transfer failed.\");\n    }\n\n    /**\n     * @dev Allows the `owner` of the Factory to cancel the game and give back the bets\n     */\n    function cancelGame() external payable onlyOwner {\n        require(gameId != \"\");\n\n        if (player1 != address(0)) {\n            (bool success, ) = player1.call{value: bet}(\"\");\n            require(success, \"Transfer failed.\");\n        }\n        if (player2 != address(0)) {\n            (bool success, ) = player2.call{value: bet}(\"\");\n            require(success, \"Transfer failed.\");\n        }\n        selfdestruct(payable(owner));\n    }\n\n    /**\n     * @dev Resets the Game\n     */\n    function resetState() internal {\n        gameId = \"\";\n        player1 = payable(address(0));\n        player2 = payable(address(0));\n        prizePool = 0;\n        bet = 0;\n    }\n}\n",
  "sourcePath": "/Users/niccolofant/dev/Solidity/Gamely/contracts/Game.sol",
  "compiler": {
    "name": "solc",
    "version": "0.8.0+commit.c7dfd78e.Emscripten.clang"
  },
  "schemaVersion": "3.4.3",
  "updatedAt": "2021-09-13T09:40:21.245Z",
  "devdoc": {
    "kind": "dev",
    "methods": {
      "_declareWinner(address)": {
        "details": "Declares the winner of the Game and resets state variables",
        "params": {
          "_winner": "Address of the winner"
        }
      },
      "cancelGame()": {
        "details": "Allows the `owner` of the Factory to cancel the game and give back the bets"
      },
      "constructor": {
        "details": "The Game constructor sets `player1` of the Game to the `_gameCreator` and the original `owner` of the contract to the address that deployed the GameFactory",
        "params": {
          "_gameCreator": "The address of the account who created the Game",
          "_owner": "The address of the owner of the GameFactory"
        }
      },
      "deleteGame()": {
        "details": "Allows the creator of the game to delete it, only if it hasn't already been accepted by an opponent"
      },
      "joinGame()": {
        "details": "Allows a player to join an existing challenge"
      }
    },
    "version": 1
  },
  "userdoc": {
    "kind": "user",
    "methods": {},
    "version": 1
  }
}