{
  "contractName": "GameFactory",
  "abi": [
    {
      "anonymous": false,
      "inputs": [
        {
          "indexed": false,
          "internalType": "contract Game",
          "name": "game",
          "type": "address"
        }
      ],
      "name": "GameCreated",
      "type": "event"
    },
    {
      "inputs": [
        {
          "internalType": "uint256",
          "name": "",
          "type": "uint256"
        }
      ],
      "name": "deployedGames",
      "outputs": [
        {
          "internalType": "address",
          "name": "",
          "type": "address"
        }
      ],
      "stateMutability": "view",
      "type": "function",
      "constant": true
    },
    {
      "inputs": [],
      "name": "owner",
      "outputs": [
        {
          "internalType": "address",
          "name": "",
          "type": "address"
        }
      ],
      "stateMutability": "view",
      "type": "function",
      "constant": true
    },
    {
      "inputs": [],
      "name": "renounceOwnership",
      "outputs": [],
      "stateMutability": "nonpayable",
      "type": "function"
    },
    {
      "inputs": [
        {
          "internalType": "address",
          "name": "newOwner",
          "type": "address"
        }
      ],
      "name": "transferOwnership",
      "outputs": [],
      "stateMutability": "nonpayable",
      "type": "function"
    },
    {
      "inputs": [],
      "name": "createGame",
      "outputs": [
        {
          "internalType": "address payable",
          "name": "",
          "type": "address"
        }
      ],
      "stateMutability": "payable",
      "type": "function",
      "payable": true
    },
    {
      "inputs": [],
      "name": "getDeployedGames",
      "outputs": [
        {
          "internalType": "address[]",
          "name": "",
          "type": "address[]"
        }
      ],
      "stateMutability": "view",
      "type": "function",
      "constant": true
    }
  ],
  "bytecode": "0x608060405234801561001057600080fd5b50336000806101000a81548173ffffffffffffffffffffffffffffffffffffffff021916908373ffffffffffffffffffffffffffffffffffffffff16021790555061209b806100606000396000f3fe6080604052600436106200005c5760003560e01c8063657908d11462000061578063715018a614620000a55780637255d72914620000bf5780638da5cb5b14620000e1578063eae81c371462000111578063f2fde38b1462000141575b600080fd5b3480156200006e57600080fd5b506200008d600480360381019062000087919062000602565b6200016f565b6040516200009c91906200079c565b60405180910390f35b348015620000b257600080fd5b50620000bd620001af565b005b620000c96200024b565b604051620000d89190620007b9565b60405180910390f35b348015620000ee57600080fd5b50620000f96200040f565b6040516200010891906200079c565b60405180910390f35b3480156200011e57600080fd5b506200012962000433565b60405162000138919062000803565b60405180910390f35b3480156200014e57600080fd5b506200016d6004803603810190620001679190620005d6565b620004c3565b005b600181815481106200018057600080fd5b906000526020600020016000915054906101000a900473ffffffffffffffffffffffffffffffffffffffff1681565b60008054906101000a900473ffffffffffffffffffffffffffffffffffffffff1673ffffffffffffffffffffffffffffffffffffffff163373ffffffffffffffffffffffffffffffffffffffff16146200020857600080fd5b60008060006101000a81548173ffffffffffffffffffffffffffffffffffffffff021916908373ffffffffffffffffffffffffffffffffffffffff160217905550565b600080341162000292576040517f08c379a0000000000000000000000000000000000000000000000000000000008152600401620002899062000827565b60405180910390fd5b60003360008054906101000a900473ffffffffffffffffffffffffffffffffffffffff16604051620002c4906200059a565b620002d1929190620007d6565b604051809103906000f080158015620002ee573d6000803e3d6000fd5b50905060008173ffffffffffffffffffffffffffffffffffffffff1634604051620003199062000785565b60006040518083038185875af1925050503d806000811462000358576040519150601f19603f3d011682016040523d82523d6000602084013e6200035d565b606091505b5050905080620003a4576040517f08c379a00000000000000000000000000000000000000000000000000000000081526004016200039b9062000849565b60405180910390fd5b6001829080600181540180825580915050600190039060005260206000200160009091909190916101000a81548173ffffffffffffffffffffffffffffffffffffffff021916908373ffffffffffffffffffffffffffffffffffffffff160217905550819250505090565b60008054906101000a900473ffffffffffffffffffffffffffffffffffffffff1681565b60606001805480602002602001604051908101604052809291908181526020018280548015620004b957602002820191906000526020600020905b8160009054906101000a900473ffffffffffffffffffffffffffffffffffffffff1673ffffffffffffffffffffffffffffffffffffffff16815260200190600101908083116200046e575b5050505050905090565b60008054906101000a900473ffffffffffffffffffffffffffffffffffffffff1673ffffffffffffffffffffffffffffffffffffffff163373ffffffffffffffffffffffffffffffffffffffff16146200051c57600080fd5b600073ffffffffffffffffffffffffffffffffffffffff168173ffffffffffffffffffffffffffffffffffffffff1614156200055757600080fd5b806000806101000a81548173ffffffffffffffffffffffffffffffffffffffff021916908373ffffffffffffffffffffffffffffffffffffffff16021790555050565b61171f806200094783390190565b600081359050620005b98162000912565b92915050565b600081359050620005d0816200092c565b92915050565b600060208284031215620005e957600080fd5b6000620005f984828501620005a8565b91505092915050565b6000602082840312156200061557600080fd5b60006200062584828501620005bf565b91505092915050565b60006200063c838362000659565b60208301905092915050565b6200065381620008d4565b82525050565b6200066481620008c0565b82525050565b6200067581620008c0565b82525050565b600062000688826200087b565b62000694818562000893565b9350620006a1836200086b565b8060005b83811015620006d8578151620006bc88826200062e565b9750620006c98362000886565b925050600181019050620006a5565b5085935050505092915050565b6000620006f4601983620008af565b91507f596f75206d757374207374616b6520736f6d6520455448732e000000000000006000830152602082019050919050565b600062000736600083620008a4565b9150600082019050919050565b600062000752601083620008af565b91507f5472616e73666572206661696c65642e000000000000000000000000000000006000830152602082019050919050565b6000620007928262000727565b9150819050919050565b6000602082019050620007b360008301846200066a565b92915050565b6000602082019050620007d0600083018462000648565b92915050565b6000604082019050620007ed60008301856200066a565b620007fc60208301846200066a565b9392505050565b600060208201905081810360008301526200081f81846200067b565b905092915050565b600060208201905081810360008301526200084281620006e5565b9050919050565b60006020820190508181036000830152620008648162000743565b9050919050565b6000819050602082019050919050565b600081519050919050565b6000602082019050919050565b600082825260208201905092915050565b600081905092915050565b600082825260208201905092915050565b6000620008cd82620008e8565b9050919050565b6000620008e182620008e8565b9050919050565b600073ffffffffffffffffffffffffffffffffffffffff82169050919050565b6000819050919050565b6200091d81620008c0565b81146200092957600080fd5b50565b620009378162000908565b81146200094357600080fd5b5056fe60806040526040516200171f3803806200171f833981810160405281019062000029919062000171565b806000806101000a81548173ffffffffffffffffffffffffffffffffffffffff021916908373ffffffffffffffffffffffffffffffffffffffff1602179055508143406040516020016200007f929190620001f9565b6040516020818303038152906040528051906020012060018190555081600460006101000a81548173ffffffffffffffffffffffffffffffffffffffff021916908373ffffffffffffffffffffffffffffffffffffffff160217905550600460009054906101000a900473ffffffffffffffffffffffffffffffffffffffff1673ffffffffffffffffffffffffffffffffffffffff166001547e06379582cf33f082958411b512c6d1b9888095de98bc1f9532e3f1653361526002546040516200014a919062000229565b60405180910390a35050620002e7565b6000815190506200016b81620002cd565b92915050565b600080604083850312156200018557600080fd5b600062000195858286016200015a565b9250506020620001a8858286016200015a565b9150509250929050565b620001c7620001c18262000246565b6200028e565b82525050565b620001e2620001dc826200025a565b620002a2565b82525050565b620001f38162000284565b82525050565b6000620002078285620001b2565b601482019150620002198284620001cd565b6020820191508190509392505050565b6000602082019050620002406000830184620001e8565b92915050565b6000620002538262000264565b9050919050565b6000819050919050565b600073ffffffffffffffffffffffffffffffffffffffff82169050919050565b6000819050919050565b60006200029b82620002ac565b9050919050565b6000819050919050565b6000620002b982620002c0565b9050919050565b60008160601b9050919050565b620002d88162000246565b8114620002e457600080fd5b50565b61142880620002f76000396000f3fe6080604052600436106100955760003560e01c8063c8011be911610059578063c8011be9146101c2578063d30895e4146101cc578063d4f77b1c146101f7578063d7c81b5514610201578063d84c1ac91461022c576100f5565b806311610c25146100fa57806359a5f12d14610125578063719ce73e1461015057806377adb6f01461017b5780638da5cb5b14610197576100f5565b366100f55734600260008282546100ac9190611210565b92505081905550346003819055507f88a5966d370b9919b20f3e2c13ff65706f196a4e32cc2c12bf57088f8852587433346040516100eb9291906110b5565b60405180910390a1005b600080fd5b34801561010657600080fd5b5061010f610236565b60405161011c91906111d9565b60405180910390f35b34801561013157600080fd5b5061013a61023c565b604051610147919061109a565b60405180910390f35b34801561015c57600080fd5b50610165610262565b60405161017291906111d9565b60405180910390f35b61019560048036038101906101909190610d93565b610268565b005b3480156101a357600080fd5b506101ac610492565b6040516101b9919061107f565b60405180910390f35b6101ca6104b6565b005b3480156101d857600080fd5b506101e1610612565b6040516101ee919061109a565b60405180910390f35b6101ff610638565b005b34801561020d57600080fd5b50610216610902565b60405161022391906110de565b60405180910390f35b610234610908565b005b60035481565b600560009054906101000a900473ffffffffffffffffffffffffffffffffffffffff1681565b60025481565b60008054906101000a900473ffffffffffffffffffffffffffffffffffffffff1673ffffffffffffffffffffffffffffffffffffffff163373ffffffffffffffffffffffffffffffffffffffff16146102f6576040517f08c379a00000000000000000000000000000000000000000000000000000000081526004016102ed906110f9565b60405180910390fd5b6000600154141561033c576040517f08c379a0000000000000000000000000000000000000000000000000000000008152600401610333906111b9565b60405180910390fd5b60006002606460025461034f9190611266565b6103599190611297565b905061037973d9145cce52d386f254917e481eb44e9943f3913882610c2f565b60008273ffffffffffffffffffffffffffffffffffffffff16826002546103a091906112f1565b6040516103ac9061106a565b60006040518083038185875af1925050503d80600081146103e9576040519150601f19603f3d011682016040523d82523d6000602084013e6103ee565b606091505b5050905080610432576040517f08c379a000000000000000000000000000000000000000000000000000000000815260040161042990611159565b60405180910390fd5b8273ffffffffffffffffffffffffffffffffffffffff166001547ff91f56a3ee1a546af57623d149e7046d11ea3eb2a69d952f3546b681742a04e060025460405161047d91906111d9565b60405180910390a361048d610ce0565b505050565b60008054906101000a900473ffffffffffffffffffffffffffffffffffffffff1681565b600460009054906101000a900473ffffffffffffffffffffffffffffffffffffffff1673ffffffffffffffffffffffffffffffffffffffff163373ffffffffffffffffffffffffffffffffffffffff1614610546576040517f08c379a000000000000000000000000000000000000000000000000000000000815260040161053d906110f9565b60405180910390fd5b600073ffffffffffffffffffffffffffffffffffffffff16600560009054906101000a900473ffffffffffffffffffffffffffffffffffffffff1673ffffffffffffffffffffffffffffffffffffffff16146105d7576040517f08c379a00000000000000000000000000000000000000000000000000000000081526004016105ce90611199565b60405180910390fd5b600460009054906101000a900473ffffffffffffffffffffffffffffffffffffffff1673ffffffffffffffffffffffffffffffffffffffff16ff5b600460009054906101000a900473ffffffffffffffffffffffffffffffffffffffff1681565b600560009054906101000a900473ffffffffffffffffffffffffffffffffffffffff1673ffffffffffffffffffffffffffffffffffffffff163373ffffffffffffffffffffffffffffffffffffffff16141580156106e45750600460009054906101000a900473ffffffffffffffffffffffffffffffffffffffff1673ffffffffffffffffffffffffffffffffffffffff163373ffffffffffffffffffffffffffffffffffffffff1614155b610723576040517f08c379a000000000000000000000000000000000000000000000000000000000815260040161071a90611179565b60405180910390fd5b600073ffffffffffffffffffffffffffffffffffffffff16600560009054906101000a900473ffffffffffffffffffffffffffffffffffffffff1673ffffffffffffffffffffffffffffffffffffffff16146107b4576040517f08c379a00000000000000000000000000000000000000000000000000000000081526004016107ab90611119565b60405180910390fd5b60035434146107f8576040517f08c379a00000000000000000000000000000000000000000000000000000000081526004016107ef90611139565b60405180910390fd5b33600560006101000a81548173ffffffffffffffffffffffffffffffffffffffff021916908373ffffffffffffffffffffffffffffffffffffffff160217905550346002600082825461084b9190611210565b92505081905550600560009054906101000a900473ffffffffffffffffffffffffffffffffffffffff1673ffffffffffffffffffffffffffffffffffffffff16600460009054906101000a900473ffffffffffffffffffffffffffffffffffffffff1673ffffffffffffffffffffffffffffffffffffffff166001547f3260b8a907f304fe6855f0f3f1e6efffc0ae261ab322c7f326126155cb9bc1626002546040516108f891906111d9565b60405180910390a4565b60015481565b60008054906101000a900473ffffffffffffffffffffffffffffffffffffffff1673ffffffffffffffffffffffffffffffffffffffff163373ffffffffffffffffffffffffffffffffffffffff1614610996576040517f08c379a000000000000000000000000000000000000000000000000000000000815260040161098d906110f9565b60405180910390fd5b600060015414156109a657600080fd5b600073ffffffffffffffffffffffffffffffffffffffff16600460009054906101000a900473ffffffffffffffffffffffffffffffffffffffff1673ffffffffffffffffffffffffffffffffffffffff1614610ace576000600460009054906101000a900473ffffffffffffffffffffffffffffffffffffffff1673ffffffffffffffffffffffffffffffffffffffff16600354604051610a469061106a565b60006040518083038185875af1925050503d8060008114610a83576040519150601f19603f3d011682016040523d82523d6000602084013e610a88565b606091505b5050905080610acc576040517f08c379a0000000000000000000000000000000000000000000000000000000008152600401610ac390611159565b60405180910390fd5b505b600073ffffffffffffffffffffffffffffffffffffffff16600560009054906101000a900473ffffffffffffffffffffffffffffffffffffffff1673ffffffffffffffffffffffffffffffffffffffff1614610bf6576000600560009054906101000a900473ffffffffffffffffffffffffffffffffffffffff1673ffffffffffffffffffffffffffffffffffffffff16600354604051610b6e9061106a565b60006040518083038185875af1925050503d8060008114610bab576040519150601f19603f3d011682016040523d82523d6000602084013e610bb0565b606091505b5050905080610bf4576040517f08c379a0000000000000000000000000000000000000000000000000000000008152600401610beb90611159565b60405180910390fd5b505b60008054906101000a900473ffffffffffffffffffffffffffffffffffffffff1673ffffffffffffffffffffffffffffffffffffffff16ff5b60008273ffffffffffffffffffffffffffffffffffffffff1682604051610c559061106a565b60006040518083038185875af1925050503d8060008114610c92576040519150601f19603f3d011682016040523d82523d6000602084013e610c97565b606091505b5050905080610cdb576040517f08c379a0000000000000000000000000000000000000000000000000000000008152600401610cd290611159565b60405180910390fd5b505050565b60006001819055506000600460006101000a81548173ffffffffffffffffffffffffffffffffffffffff021916908373ffffffffffffffffffffffffffffffffffffffff1602179055506000600560006101000a81548173ffffffffffffffffffffffffffffffffffffffff021916908373ffffffffffffffffffffffffffffffffffffffff16021790555060006002819055506000600381905550565b600081359050610d8d816113db565b92915050565b600060208284031215610da557600080fd5b6000610db384828501610d7e565b91505092915050565b610dc581611337565b82525050565b610dd481611325565b82525050565b610de381611349565b82525050565b6000610df66033836111ff565b91507f596f7520646f6e2774206861766520746865207065726d697373696f6e73207460008301527f6f2064656c65746520746869732067616d652e000000000000000000000000006020830152604082019050919050565b6000610e5c6021836111ff565b91507f536f6d65626f647920697320616c726561647920696e20746869732067616d6560008301527f2e000000000000000000000000000000000000000000000000000000000000006020830152604082019050919050565b6000610ec26038836111ff565b91507f596f75206d757374207374616b65207468652073616d6520616d6f756e74206f60008301527f66204554487320617320796f7572206f70706f6e656e742e00000000000000006020830152604082019050919050565b6000610f286000836111f4565b9150600082019050919050565b6000610f426010836111ff565b91507f5472616e73666572206661696c65642e000000000000000000000000000000006000830152602082019050919050565b6000610f82601d836111ff565b91507f596f752061726520616c726561647920696e20746869732067616d652e0000006000830152602082019050919050565b6000610fc2602b836111ff565b91507f47616d6520616c72656164792061636365707465642e20596f752063616e277460008301527f2064656c6574652069742e0000000000000000000000000000000000000000006020830152604082019050919050565b60006110286013836111ff565b91507f47616d6520616c726561647920656e6465642e000000000000000000000000006000830152602082019050919050565b61106481611373565b82525050565b600061107582610f1b565b9150819050919050565b60006020820190506110946000830184610dcb565b92915050565b60006020820190506110af6000830184610dbc565b92915050565b60006040820190506110ca6000830185610dcb565b6110d7602083018461105b565b9392505050565b60006020820190506110f36000830184610dda565b92915050565b6000602082019050818103600083015261111281610de9565b9050919050565b6000602082019050818103600083015261113281610e4f565b9050919050565b6000602082019050818103600083015261115281610eb5565b9050919050565b6000602082019050818103600083015261117281610f35565b9050919050565b6000602082019050818103600083015261119281610f75565b9050919050565b600060208201905081810360008301526111b281610fb5565b9050919050565b600060208201905081810360008301526111d28161101b565b9050919050565b60006020820190506111ee600083018461105b565b92915050565b600081905092915050565b600082825260208201905092915050565b600061121b82611373565b915061122683611373565b9250827fffffffffffffffffffffffffffffffffffffffffffffffffffffffffffffffff0382111561125b5761125a61137d565b5b828201905092915050565b600061127182611373565b915061127c83611373565b92508261128c5761128b6113ac565b5b828204905092915050565b60006112a282611373565b91506112ad83611373565b9250817fffffffffffffffffffffffffffffffffffffffffffffffffffffffffffffffff04831182151516156112e6576112e561137d565b5b828202905092915050565b60006112fc82611373565b915061130783611373565b92508282101561131a5761131961137d565b5b828203905092915050565b600061133082611353565b9050919050565b600061134282611353565b9050919050565b6000819050919050565b600073ffffffffffffffffffffffffffffffffffffffff82169050919050565b6000819050919050565b7f4e487b7100000000000000000000000000000000000000000000000000000000600052601160045260246000fd5b7f4e487b7100000000000000000000000000000000000000000000000000000000600052601260045260246000fd5b6113e481611337565b81146113ef57600080fd5b5056fea2646970667358221220b4e7b6c0085008ea69ebc0e418655c360a86a3312a4d677697864a782120b91f64736f6c63430008000033a26469706673582212201b04f068807b1d6996923629f039163925754d3b517e9f4d2b810d167c52f6f064736f6c63430008000033",
  "immutableReferences": {},
  "source": "// SPDX-License-Identifier: MIT\n\npragma solidity ^0.8.0;\n\nimport \"./Ownable.sol\";\nimport \"./FeesStorage.sol\";\n\ncontract GameFactory is Ownable {\n    address[] public deployedGames;\n\n    event GameCreated(Game game);\n\n    /**\n     * @dev Allows a player to create a new game\n     */\n    function createGame() external payable returns (address payable) {\n        require(msg.value > 0, \"You must stake some ETHs.\");\n\n        address payable newGame = payable(address(new Game(msg.sender, owner)));\n        (bool success, ) = newGame.call{value: msg.value}(\"\");\n\n        require(success, \"Transfer failed.\");\n\n        deployedGames.push(newGame);\n        return newGame;\n    }\n\n    /**\n     * @dev Returns an array containing all the deployed games\n     */\n    function getDeployedGames() external view returns (address[] memory) {\n        return deployedGames;\n    }\n}\n\ncontract Game {\n    address public owner;\n    bytes32 public gameId;\n    uint256 public prizePool;\n    uint256 public bet;\n    address payable public player1;\n    address payable public player2;\n\n    event Received(address sender, uint256 value);\n    event GameCreated(\n        bytes32 indexed gameId,\n        address indexed player1,\n        uint256 prizePool\n    );\n    event GameAccepted(\n        bytes32 indexed gameId,\n        address indexed player1,\n        address indexed player2,\n        uint256 prizePool\n    );\n    event GameEnded(\n        bytes32 indexed gameId,\n        address indexed winner,\n        uint256 prizePool\n    );\n\n    modifier onlyOwner() {\n        require(\n            msg.sender == owner,\n            \"You don't have the permissions to delete this game.\"\n        );\n        _;\n    }\n\n    modifier onlyGameCreator() {\n        require(\n            msg.sender == player1,\n            \"You don't have the permissions to delete this game.\"\n        );\n        _;\n    }\n\n    modifier onlyIfPossible() {\n        require(\n            msg.sender != player2 && msg.sender != player1,\n            \"You are already in this game.\"\n        );\n        require(player2 == address(0), \"Somebody is already in this game.\");\n        _;\n    }\n\n    /**\n     * @dev The Game constructor sets `player1` of the Game to the `_gameCreator`\n     * and the original `owner` of the contract to the address that deployed the GameFactory\n     * @param _gameCreator The address of the account who created the Game\n     * @param _owner The address of the owner of the GameFactory\n     */\n    constructor(address _gameCreator, address _owner) payable {\n        owner = _owner;\n        gameId = bytes32(\n            keccak256(abi.encodePacked(_gameCreator, blockhash(block.number)))\n        );\n        player1 = payable(_gameCreator);\n        emit GameCreated(gameId, player1, prizePool);\n    }\n\n    /**\n     * @dev Fallback function\n     */\n    receive() external payable {\n        prizePool += msg.value;\n        bet = msg.value;\n        emit Received(msg.sender, msg.value);\n    }\n\n    /**\n     * @dev Allows a player to join an existing challenge\n     */\n    function joinGame() external payable onlyIfPossible {\n        require(\n            msg.value == bet,\n            \"You must stake the same amount of ETHs as your opponent.\"\n        );\n\n        player2 = payable(msg.sender);\n        prizePool += msg.value;\n        emit GameAccepted(gameId, player1, player2, prizePool);\n    }\n\n    /**\n     * @dev Allows the creator of the game to delete it, only if it hasn't already been accepted by an opponent\n     */\n    function deleteGame() external payable onlyGameCreator {\n        require(\n            player2 == address(0),\n            \"Game already accepted. You can't delete it.\"\n        );\n        selfdestruct(player1);\n    }\n\n    /**\n     * @dev Declares the winner of the Game and resets state variables\n     * @param _winner Address of the winner\n     */\n    function _declareWinner(address payable _winner)\n        external\n        payable\n        onlyOwner\n    {\n        require(gameId != \"\", \"Game already ended.\");\n        uint256 fee = (prizePool / 100) * 2;\n        storeFees(payable(0xd9145CCE52D386f254917e481eB44e9943F39138), fee);\n        (bool success, ) = _winner.call{value: prizePool - fee}(\"\");\n\n        require(success, \"Transfer failed.\");\n\n        emit GameEnded(gameId, _winner, prizePool);\n\n        resetState();\n    }\n\n    /**\n     * @dev Stores the fee's `_amount` to another contract\n     * at address `_storageAddress`\n     */\n    function storeFees(address payable _storageAddress, uint256 _amount)\n        internal\n    {\n        (bool success, ) = _storageAddress.call{value: _amount}(\"\");\n        require(success, \"Transfer failed.\");\n    }\n\n    /**\n     * @dev Allows the `owner` of the Factory to cancel the game and give back the bets\n     */\n    function cancelGame() external payable onlyOwner {\n        require(gameId != \"\");\n\n        if (player1 != address(0)) {\n            (bool success, ) = player1.call{value: bet}(\"\");\n            require(success, \"Transfer failed.\");\n        }\n        if (player2 != address(0)) {\n            (bool success, ) = player2.call{value: bet}(\"\");\n            require(success, \"Transfer failed.\");\n        }\n        selfdestruct(payable(owner));\n    }\n\n    /**\n     * @dev Resets the Game\n     */\n    function resetState() internal {\n        gameId = \"\";\n        player1 = payable(address(0));\n        player2 = payable(address(0));\n        prizePool = 0;\n        bet = 0;\n    }\n}\n",
  "sourcePath": "/Users/niccolofant/dev/Solidity/Gamely/contracts/Game.sol",
  "compiler": {
    "name": "solc",
    "version": "0.8.0+commit.c7dfd78e.Emscripten.clang"
  },
  "schemaVersion": "3.4.3",
  "updatedAt": "2021-09-10T05:36:12.045Z",
  "networkType": "ethereum",
  "devdoc": {
    "kind": "dev",
    "methods": {
      "createGame()": {
        "details": "Allows a player to create a new game"
      },
      "getDeployedGames()": {
        "details": "Returns an array containing all the deployed games"
      },
      "renounceOwnership()": {
        "details": "Allows the current owner to relinquish control of the contract."
      },
      "transferOwnership(address)": {
        "details": "Allows the current owner to transfer control of the contract to a newOwner.",
        "params": {
          "newOwner": "The address to transfer ownership to."
        }
      }
    },
    "version": 1
  },
  "userdoc": {
    "kind": "user",
    "methods": {},
    "version": 1
  }
}