{
  "contractName": "Game",
  "abi": [
    {
      "inputs": [
        {
          "internalType": "address",
          "name": "_gameCreator",
          "type": "address"
        },
        {
          "internalType": "address",
          "name": "_owner",
          "type": "address"
        }
      ],
      "stateMutability": "payable",
      "type": "constructor"
    },
    {
      "anonymous": false,
      "inputs": [
        {
          "indexed": true,
          "internalType": "bytes32",
          "name": "gameId",
          "type": "bytes32"
        },
        {
          "indexed": true,
          "internalType": "address",
          "name": "player1",
          "type": "address"
        },
        {
          "indexed": true,
          "internalType": "address",
          "name": "player2",
          "type": "address"
        },
        {
          "indexed": false,
          "internalType": "uint256",
          "name": "prizePool",
          "type": "uint256"
        }
      ],
      "name": "GameAccepted",
      "type": "event"
    },
    {
      "anonymous": false,
      "inputs": [
        {
          "indexed": false,
          "internalType": "bytes32",
          "name": "gameId",
          "type": "bytes32"
        }
      ],
      "name": "GameCancelled",
      "type": "event"
    },
    {
      "anonymous": false,
      "inputs": [
        {
          "indexed": true,
          "internalType": "bytes32",
          "name": "gameId",
          "type": "bytes32"
        },
        {
          "indexed": true,
          "internalType": "address",
          "name": "player1",
          "type": "address"
        },
        {
          "indexed": false,
          "internalType": "uint256",
          "name": "prizePool",
          "type": "uint256"
        }
      ],
      "name": "GameCreated",
      "type": "event"
    },
    {
      "anonymous": false,
      "inputs": [
        {
          "indexed": true,
          "internalType": "bytes32",
          "name": "gameId",
          "type": "bytes32"
        },
        {
          "indexed": true,
          "internalType": "address",
          "name": "winner",
          "type": "address"
        },
        {
          "indexed": false,
          "internalType": "uint256",
          "name": "prizePool",
          "type": "uint256"
        }
      ],
      "name": "GameEnded",
      "type": "event"
    },
    {
      "anonymous": false,
      "inputs": [
        {
          "indexed": false,
          "internalType": "address",
          "name": "sender",
          "type": "address"
        },
        {
          "indexed": false,
          "internalType": "uint256",
          "name": "value",
          "type": "uint256"
        }
      ],
      "name": "Received",
      "type": "event"
    },
    {
      "inputs": [],
      "name": "bet",
      "outputs": [
        {
          "internalType": "uint256",
          "name": "",
          "type": "uint256"
        }
      ],
      "stateMutability": "view",
      "type": "function"
    },
    {
      "inputs": [],
      "name": "gameId",
      "outputs": [
        {
          "internalType": "bytes32",
          "name": "",
          "type": "bytes32"
        }
      ],
      "stateMutability": "view",
      "type": "function"
    },
    {
      "inputs": [],
      "name": "owner",
      "outputs": [
        {
          "internalType": "address",
          "name": "",
          "type": "address"
        }
      ],
      "stateMutability": "view",
      "type": "function"
    },
    {
      "inputs": [],
      "name": "player1",
      "outputs": [
        {
          "internalType": "address payable",
          "name": "",
          "type": "address"
        }
      ],
      "stateMutability": "view",
      "type": "function"
    },
    {
      "inputs": [],
      "name": "player2",
      "outputs": [
        {
          "internalType": "address payable",
          "name": "",
          "type": "address"
        }
      ],
      "stateMutability": "view",
      "type": "function"
    },
    {
      "inputs": [],
      "name": "prizePool",
      "outputs": [
        {
          "internalType": "uint256",
          "name": "",
          "type": "uint256"
        }
      ],
      "stateMutability": "view",
      "type": "function"
    },
    {
      "stateMutability": "payable",
      "type": "receive"
    },
    {
      "inputs": [],
      "name": "joinGame",
      "outputs": [],
      "stateMutability": "payable",
      "type": "function"
    },
    {
      "inputs": [],
      "name": "deleteGame",
      "outputs": [],
      "stateMutability": "payable",
      "type": "function"
    },
    {
      "inputs": [
        {
          "internalType": "address payable",
          "name": "_winner",
          "type": "address"
        }
      ],
      "name": "_declareWinner",
      "outputs": [],
      "stateMutability": "payable",
      "type": "function"
    },
    {
      "inputs": [],
      "name": "cancelGame",
      "outputs": [],
      "stateMutability": "payable",
      "type": "function"
    }
  ],
  "bytecode": "0x60806040526040516200177338038062001773833981810160405281019062000029919062000171565b806000806101000a81548173ffffffffffffffffffffffffffffffffffffffff021916908373ffffffffffffffffffffffffffffffffffffffff1602179055508143406040516020016200007f929190620001f9565b6040516020818303038152906040528051906020012060018190555081600460006101000a81548173ffffffffffffffffffffffffffffffffffffffff021916908373ffffffffffffffffffffffffffffffffffffffff160217905550600460009054906101000a900473ffffffffffffffffffffffffffffffffffffffff1673ffffffffffffffffffffffffffffffffffffffff166001547e06379582cf33f082958411b512c6d1b9888095de98bc1f9532e3f1653361526002546040516200014a919062000229565b60405180910390a35050620002e7565b6000815190506200016b81620002cd565b92915050565b600080604083850312156200018557600080fd5b600062000195858286016200015a565b9250506020620001a8858286016200015a565b9150509250929050565b620001c7620001c18262000246565b6200028e565b82525050565b620001e2620001dc826200025a565b620002a2565b82525050565b620001f38162000284565b82525050565b6000620002078285620001b2565b601482019150620002198284620001cd565b6020820191508190509392505050565b6000602082019050620002406000830184620001e8565b92915050565b6000620002538262000264565b9050919050565b6000819050919050565b600073ffffffffffffffffffffffffffffffffffffffff82169050919050565b6000819050919050565b60006200029b82620002ac565b9050919050565b6000819050919050565b6000620002b982620002c0565b9050919050565b60008160601b9050919050565b620002d88162000246565b8114620002e457600080fd5b50565b61147c80620002f76000396000f3fe6080604052600436106100955760003560e01c8063c8011be911610059578063c8011be9146101c2578063d30895e4146101cc578063d4f77b1c146101f7578063d7c81b5514610201578063d84c1ac91461022c576100f5565b806311610c25146100fa57806359a5f12d14610125578063719ce73e1461015057806377adb6f01461017b5780638da5cb5b14610197576100f5565b366100f55734600260008282546100ac9190611264565b92505081905550346003819055507f88a5966d370b9919b20f3e2c13ff65706f196a4e32cc2c12bf57088f8852587433346040516100eb929190611109565b60405180910390a1005b600080fd5b34801561010657600080fd5b5061010f610236565b60405161011c919061122d565b60405180910390f35b34801561013157600080fd5b5061013a61023c565b60405161014791906110ee565b60405180910390f35b34801561015c57600080fd5b50610165610262565b604051610172919061122d565b60405180910390f35b61019560048036038101906101909190610de7565b610268565b005b3480156101a357600080fd5b506101ac61048a565b6040516101b991906110d3565b60405180910390f35b6101ca6104ae565b005b3480156101d857600080fd5b506101e1610704565b6040516101ee91906110ee565b60405180910390f35b6101ff61072a565b005b34801561020d57600080fd5b506102166109f4565b6040516102239190611132565b60405180910390f35b6102346109fa565b005b60035481565b600560009054906101000a900473ffffffffffffffffffffffffffffffffffffffff1681565b60025481565b60008054906101000a900473ffffffffffffffffffffffffffffffffffffffff1673ffffffffffffffffffffffffffffffffffffffff163373ffffffffffffffffffffffffffffffffffffffff16146102f6576040517f08c379a00000000000000000000000000000000000000000000000000000000081526004016102ed9061114d565b60405180910390fd5b6000600154141561033c576040517f08c379a00000000000000000000000000000000000000000000000000000000081526004016103339061120d565b60405180910390fd5b60006002606460025461034f91906112ba565b61035991906112eb565b9050610379738f0483125fcb9aaaefa9209d8e9d7b9c8b9fb90f82610d21565b60008273ffffffffffffffffffffffffffffffffffffffff16826002546103a09190611345565b6040516103ac906110be565b60006040518083038185875af1925050503d80600081146103e9576040519150601f19603f3d011682016040523d82523d6000602084013e6103ee565b606091505b5050905080610432576040517f08c379a0000000000000000000000000000000000000000000000000000000008152600401610429906111ad565b60405180910390fd5b8273ffffffffffffffffffffffffffffffffffffffff166001547ff91f56a3ee1a546af57623d149e7046d11ea3eb2a69d952f3546b681742a04e060025460405161047d919061122d565b60405180910390a3505050565b60008054906101000a900473ffffffffffffffffffffffffffffffffffffffff1681565b600460009054906101000a900473ffffffffffffffffffffffffffffffffffffffff1673ffffffffffffffffffffffffffffffffffffffff163373ffffffffffffffffffffffffffffffffffffffff161461053e576040517f08c379a00000000000000000000000000000000000000000000000000000000081526004016105359061114d565b60405180910390fd5b600073ffffffffffffffffffffffffffffffffffffffff16600560009054906101000a900473ffffffffffffffffffffffffffffffffffffffff1673ffffffffffffffffffffffffffffffffffffffff16146105cf576040517f08c379a00000000000000000000000000000000000000000000000000000000081526004016105c6906111ed565b60405180910390fd5b6000600354476105df9190611345565b9050600081476105ef9190611345565b905060008111156106c95760008060009054906101000a900473ffffffffffffffffffffffffffffffffffffffff1673ffffffffffffffffffffffffffffffffffffffff1682604051610641906110be565b60006040518083038185875af1925050503d806000811461067e576040519150601f19603f3d011682016040523d82523d6000602084013e610683565b606091505b50509050806106c7576040517f08c379a00000000000000000000000000000000000000000000000000000000081526004016106be906111ad565b60405180910390fd5b505b600460009054906101000a900473ffffffffffffffffffffffffffffffffffffffff1673ffffffffffffffffffffffffffffffffffffffff16ff5b600460009054906101000a900473ffffffffffffffffffffffffffffffffffffffff1681565b600560009054906101000a900473ffffffffffffffffffffffffffffffffffffffff1673ffffffffffffffffffffffffffffffffffffffff163373ffffffffffffffffffffffffffffffffffffffff16141580156107d65750600460009054906101000a900473ffffffffffffffffffffffffffffffffffffffff1673ffffffffffffffffffffffffffffffffffffffff163373ffffffffffffffffffffffffffffffffffffffff1614155b610815576040517f08c379a000000000000000000000000000000000000000000000000000000000815260040161080c906111cd565b60405180910390fd5b600073ffffffffffffffffffffffffffffffffffffffff16600560009054906101000a900473ffffffffffffffffffffffffffffffffffffffff1673ffffffffffffffffffffffffffffffffffffffff16146108a6576040517f08c379a000000000000000000000000000000000000000000000000000000000815260040161089d9061116d565b60405180910390fd5b60035434146108ea576040517f08c379a00000000000000000000000000000000000000000000000000000000081526004016108e19061118d565b60405180910390fd5b33600560006101000a81548173ffffffffffffffffffffffffffffffffffffffff021916908373ffffffffffffffffffffffffffffffffffffffff160217905550346002600082825461093d9190611264565b92505081905550600560009054906101000a900473ffffffffffffffffffffffffffffffffffffffff1673ffffffffffffffffffffffffffffffffffffffff16600460009054906101000a900473ffffffffffffffffffffffffffffffffffffffff1673ffffffffffffffffffffffffffffffffffffffff166001547f3260b8a907f304fe6855f0f3f1e6efffc0ae261ab322c7f326126155cb9bc1626002546040516109ea919061122d565b60405180910390a4565b60015481565b60008054906101000a900473ffffffffffffffffffffffffffffffffffffffff1673ffffffffffffffffffffffffffffffffffffffff163373ffffffffffffffffffffffffffffffffffffffff1614610a88576040517f08c379a0000000000000000000000000000000000000000000000000000000008152600401610a7f9061114d565b60405180910390fd5b60006001541415610a9857600080fd5b600073ffffffffffffffffffffffffffffffffffffffff16600460009054906101000a900473ffffffffffffffffffffffffffffffffffffffff1673ffffffffffffffffffffffffffffffffffffffff1614610bc0576000600460009054906101000a900473ffffffffffffffffffffffffffffffffffffffff1673ffffffffffffffffffffffffffffffffffffffff16600354604051610b38906110be565b60006040518083038185875af1925050503d8060008114610b75576040519150601f19603f3d011682016040523d82523d6000602084013e610b7a565b606091505b5050905080610bbe576040517f08c379a0000000000000000000000000000000000000000000000000000000008152600401610bb5906111ad565b60405180910390fd5b505b600073ffffffffffffffffffffffffffffffffffffffff16600560009054906101000a900473ffffffffffffffffffffffffffffffffffffffff1673ffffffffffffffffffffffffffffffffffffffff1614610ce8576000600560009054906101000a900473ffffffffffffffffffffffffffffffffffffffff1673ffffffffffffffffffffffffffffffffffffffff16600354604051610c60906110be565b60006040518083038185875af1925050503d8060008114610c9d576040519150601f19603f3d011682016040523d82523d6000602084013e610ca2565b606091505b5050905080610ce6576040517f08c379a0000000000000000000000000000000000000000000000000000000008152600401610cdd906111ad565b60405180910390fd5b505b60008054906101000a900473ffffffffffffffffffffffffffffffffffffffff1673ffffffffffffffffffffffffffffffffffffffff16ff5b60008273ffffffffffffffffffffffffffffffffffffffff1682604051610d47906110be565b60006040518083038185875af1925050503d8060008114610d84576040519150601f19603f3d011682016040523d82523d6000602084013e610d89565b606091505b5050905080610dcd576040517f08c379a0000000000000000000000000000000000000000000000000000000008152600401610dc4906111ad565b60405180910390fd5b505050565b600081359050610de18161142f565b92915050565b600060208284031215610df957600080fd5b6000610e0784828501610dd2565b91505092915050565b610e198161138b565b82525050565b610e2881611379565b82525050565b610e378161139d565b82525050565b6000610e4a603183611253565b91507f596f7520646f6e2774206861766520746865207065726d697373696f6e73207460008301527f6f20646f207468697320616374696f6e2e0000000000000000000000000000006020830152604082019050919050565b6000610eb0602183611253565b91507f536f6d65626f647920697320616c726561647920696e20746869732067616d6560008301527f2e000000000000000000000000000000000000000000000000000000000000006020830152604082019050919050565b6000610f16603883611253565b91507f596f75206d757374207374616b65207468652073616d6520616d6f756e74206f60008301527f66204554487320617320796f7572206f70706f6e656e742e00000000000000006020830152604082019050919050565b6000610f7c600083611248565b9150600082019050919050565b6000610f96601083611253565b91507f5472616e73666572206661696c65642e000000000000000000000000000000006000830152602082019050919050565b6000610fd6601d83611253565b91507f596f752061726520616c726561647920696e20746869732067616d652e0000006000830152602082019050919050565b6000611016602b83611253565b91507f47616d6520616c72656164792061636365707465642e20596f752063616e277460008301527f2064656c6574652069742e0000000000000000000000000000000000000000006020830152604082019050919050565b600061107c601383611253565b91507f47616d6520616c726561647920656e6465642e000000000000000000000000006000830152602082019050919050565b6110b8816113c7565b82525050565b60006110c982610f6f565b9150819050919050565b60006020820190506110e86000830184610e1f565b92915050565b60006020820190506111036000830184610e10565b92915050565b600060408201905061111e6000830185610e1f565b61112b60208301846110af565b9392505050565b60006020820190506111476000830184610e2e565b92915050565b6000602082019050818103600083015261116681610e3d565b9050919050565b6000602082019050818103600083015261118681610ea3565b9050919050565b600060208201905081810360008301526111a681610f09565b9050919050565b600060208201905081810360008301526111c681610f89565b9050919050565b600060208201905081810360008301526111e681610fc9565b9050919050565b6000602082019050818103600083015261120681611009565b9050919050565b600060208201905081810360008301526112268161106f565b9050919050565b600060208201905061124260008301846110af565b92915050565b600081905092915050565b600082825260208201905092915050565b600061126f826113c7565b915061127a836113c7565b9250827fffffffffffffffffffffffffffffffffffffffffffffffffffffffffffffffff038211156112af576112ae6113d1565b5b828201905092915050565b60006112c5826113c7565b91506112d0836113c7565b9250826112e0576112df611400565b5b828204905092915050565b60006112f6826113c7565b9150611301836113c7565b9250817fffffffffffffffffffffffffffffffffffffffffffffffffffffffffffffffff048311821515161561133a576113396113d1565b5b828202905092915050565b6000611350826113c7565b915061135b836113c7565b92508282101561136e5761136d6113d1565b5b828203905092915050565b6000611384826113a7565b9050919050565b6000611396826113a7565b9050919050565b6000819050919050565b600073ffffffffffffffffffffffffffffffffffffffff82169050919050565b6000819050919050565b7f4e487b7100000000000000000000000000000000000000000000000000000000600052601160045260246000fd5b7f4e487b7100000000000000000000000000000000000000000000000000000000600052601260045260246000fd5b6114388161138b565b811461144357600080fd5b5056fea264697066735822122090baa63a719bf3af7317cc88c71df8186bb8a86e5e2a84329d5325554661b2f064736f6c63430008000033",
  "immutableReferences": {},
  "source": "// SPDX-License-Identifier: MIT\n\npragma solidity ^0.8.0;\n\nimport \"./Ownable.sol\";\nimport \"./FeesStorage.sol\";\n\ncontract GameFactory is Ownable {\n    address[] public deployedGames;\n\n    event GameCreated(Game game);\n\n    /**\n     * @dev Allows a player to create a new game\n     */\n    function createGame() external payable {\n        require(msg.value > 0, \"You must stake some ETHs.\");\n\n        address payable newGame = payable(address(new Game(msg.sender, owner)));\n        (bool success, ) = newGame.call{value: msg.value}(\"\");\n\n        require(success, \"Transfer failed.\");\n\n        deployedGames.push(newGame);\n    }\n\n    /**\n     * @dev Returns an array containing all the deployed games\n     */\n    function getDeployedGames() external view returns (address[] memory) {\n        return deployedGames;\n    }\n}\n\ncontract Game {\n    address public owner;\n    bytes32 public gameId;\n    uint256 public prizePool;\n    uint256 public bet;\n    address payable public player1;\n    address payable public player2;\n\n    event Received(address sender, uint256 value);\n    event GameCreated(\n        bytes32 indexed gameId,\n        address indexed player1,\n        uint256 prizePool\n    );\n    event GameAccepted(\n        bytes32 indexed gameId,\n        address indexed player1,\n        address indexed player2,\n        uint256 prizePool\n    );\n    event GameEnded(\n        bytes32 indexed gameId,\n        address indexed winner,\n        uint256 prizePool\n    );\n    event GameCancelled(bytes32 gameId);\n\n    modifier onlyOwner() {\n        require(\n            msg.sender == owner,\n            \"You don't have the permissions to do this action.\"\n        );\n        _;\n    }\n\n    modifier onlyGameCreator() {\n        require(\n            msg.sender == player1,\n            \"You don't have the permissions to do this action.\"\n        );\n        _;\n    }\n\n    modifier onlyIfPossible() {\n        require(\n            msg.sender != player2 && msg.sender != player1,\n            \"You are already in this game.\"\n        );\n        require(player2 == address(0), \"Somebody is already in this game.\");\n        _;\n    }\n\n    /**\n     * @dev The Game constructor sets `player1` of the Game to the `_gameCreator`\n     * and the original `owner` of the contract to the address that deployed the GameFactory\n     * @param _gameCreator The address of the account who created the Game\n     * @param _owner The address of the owner of the GameFactory\n     */\n    constructor(address _gameCreator, address _owner) payable {\n        owner = _owner;\n        gameId = bytes32(\n            keccak256(abi.encodePacked(_gameCreator, blockhash(block.number)))\n        );\n        player1 = payable(_gameCreator);\n        emit GameCreated(gameId, player1, prizePool);\n    }\n\n    /**\n     * @dev Fallback function\n     */\n    receive() external payable {\n        prizePool += msg.value;\n        bet = msg.value;\n        emit Received(msg.sender, msg.value);\n    }\n\n    /**\n     * @dev Allows a player to join an existing challenge\n     */\n    function joinGame() external payable onlyIfPossible {\n        require(\n            msg.value == bet,\n            \"You must stake the same amount of ETHs as your opponent.\"\n        );\n\n        player2 = payable(msg.sender);\n        prizePool += msg.value;\n        emit GameAccepted(gameId, player1, player2, prizePool);\n    }\n\n    /**\n     * @dev Allows the creator of the game to delete it, only if it hasn't already been accepted by an opponent\n     */\n    function deleteGame() external payable onlyGameCreator {\n        require(\n            player2 == address(0),\n            \"Game already accepted. You can't delete it.\"\n        );\n        uint256 refundAmount = address(this).balance - bet;\n        uint256 exceededAmount = address(this).balance - refundAmount;\n        if (exceededAmount > 0) {\n            (bool success, ) = owner.call{value: exceededAmount}(\"\");\n            require(success, \"Transfer failed.\");\n        }\n        selfdestruct(player1);\n        emit GameCancelled(gameId);\n    }\n\n    /**\n     * @dev Declares the winner of the Game and resets state variables\n     * @param _winner Address of the winner\n     */\n    function _declareWinner(address payable _winner)\n        external\n        payable\n        onlyOwner\n    {\n        require(gameId != \"\", \"Game already ended.\");\n        uint256 fee = (prizePool / 100) * 2;\n        storeFees(payable(0x8f0483125FCb9aaAEFA9209D8E9d7b9C8B9Fb90F), fee);\n        (bool success, ) = _winner.call{value: prizePool - fee}(\"\");\n\n        require(success, \"Transfer failed.\");\n\n        emit GameEnded(gameId, _winner, prizePool);\n\n        //resetState();\n    }\n\n    /**\n     * @dev Stores the fee's `_amount` to another contract\n     * at address `_storageAddress`\n     */\n    function storeFees(address payable _storageAddress, uint256 _amount)\n        internal\n    {\n        (bool success, ) = _storageAddress.call{value: _amount}(\"\");\n        require(success, \"Transfer failed.\");\n    }\n\n    /**\n     * @dev Allows the `owner` of the Factory to cancel the game and give back the bets\n     */\n    function cancelGame() external payable onlyOwner {\n        require(gameId != \"\");\n\n        if (player1 != address(0)) {\n            (bool success, ) = player1.call{value: bet}(\"\");\n            require(success, \"Transfer failed.\");\n        }\n        if (player2 != address(0)) {\n            (bool success, ) = player2.call{value: bet}(\"\");\n            require(success, \"Transfer failed.\");\n        }\n        selfdestruct(payable(owner));\n    }\n\n    /**\n     * @dev Resets the Game\n     */\n    function resetState() internal {\n        gameId = \"\";\n        player1 = payable(address(0));\n        player2 = payable(address(0));\n        prizePool = 0;\n        bet = 0;\n    }\n}\n",
  "sourcePath": "/Users/niccolofant/dev/Solidity/Gamely/contracts/Game.sol",
  "compiler": {
    "name": "solc",
    "version": "0.8.0+commit.c7dfd78e.Emscripten.clang"
  },
  "schemaVersion": "3.4.3",
  "updatedAt": "2021-09-13T15:45:52.821Z",
  "devdoc": {
    "kind": "dev",
    "methods": {
      "_declareWinner(address)": {
        "details": "Declares the winner of the Game and resets state variables",
        "params": {
          "_winner": "Address of the winner"
        }
      },
      "cancelGame()": {
        "details": "Allows the `owner` of the Factory to cancel the game and give back the bets"
      },
      "constructor": {
        "details": "The Game constructor sets `player1` of the Game to the `_gameCreator` and the original `owner` of the contract to the address that deployed the GameFactory",
        "params": {
          "_gameCreator": "The address of the account who created the Game",
          "_owner": "The address of the owner of the GameFactory"
        }
      },
      "deleteGame()": {
        "details": "Allows the creator of the game to delete it, only if it hasn't already been accepted by an opponent"
      },
      "joinGame()": {
        "details": "Allows a player to join an existing challenge"
      }
    },
    "version": 1
  },
  "userdoc": {
    "kind": "user",
    "methods": {},
    "version": 1
  }
}