{
  "contractName": "GameFactory",
  "abi": [
    {
      "anonymous": false,
      "inputs": [
        {
          "indexed": false,
          "internalType": "contract Game",
          "name": "game",
          "type": "address"
        }
      ],
      "name": "GameCreated",
      "type": "event"
    },
    {
      "inputs": [
        {
          "internalType": "uint256",
          "name": "",
          "type": "uint256"
        }
      ],
      "name": "deployedGames",
      "outputs": [
        {
          "internalType": "address",
          "name": "",
          "type": "address"
        }
      ],
      "stateMutability": "view",
      "type": "function"
    },
    {
      "inputs": [],
      "name": "owner",
      "outputs": [
        {
          "internalType": "address",
          "name": "",
          "type": "address"
        }
      ],
      "stateMutability": "view",
      "type": "function"
    },
    {
      "inputs": [],
      "name": "renounceOwnership",
      "outputs": [],
      "stateMutability": "nonpayable",
      "type": "function"
    },
    {
      "inputs": [
        {
          "internalType": "address",
          "name": "newOwner",
          "type": "address"
        }
      ],
      "name": "transferOwnership",
      "outputs": [],
      "stateMutability": "nonpayable",
      "type": "function"
    },
    {
      "inputs": [],
      "name": "instanciateGame",
      "outputs": [],
      "stateMutability": "nonpayable",
      "type": "function"
    },
    {
      "inputs": [],
      "name": "getDeployedGames",
      "outputs": [
        {
          "internalType": "address[]",
          "name": "",
          "type": "address[]"
        }
      ],
      "stateMutability": "view",
      "type": "function"
    }
  ],
  "bytecode": "0x608060405234801561001057600080fd5b50336000806101000a81548173ffffffffffffffffffffffffffffffffffffffff021916908373ffffffffffffffffffffffffffffffffffffffff160217905550612256806100606000396000f3fe60806040523480156200001157600080fd5b50600436106200006a5760003560e01c8063657908d1146200006f578063715018a614620000a55780638da5cb5b14620000b1578063eae81c3714620000d3578063f2fde38b14620000f5578063f3212d8b1462000115575b600080fd5b6200008d6004803603810190620000879190620004b5565b62000121565b6040516200009c919062000598565b60405180910390f35b620000af62000161565b005b620000bb620001fd565b604051620000ca919062000598565b60405180910390f35b620000dd62000221565b604051620000ec9190620005e2565b60405180910390f35b6200011360048036038101906200010d919062000489565b620002b1565b005b6200011f62000388565b005b600181815481106200013257600080fd5b906000526020600020016000915054906101000a900473ffffffffffffffffffffffffffffffffffffffff1681565b60008054906101000a900473ffffffffffffffffffffffffffffffffffffffff1673ffffffffffffffffffffffffffffffffffffffff163373ffffffffffffffffffffffffffffffffffffffff1614620001ba57600080fd5b60008060006101000a81548173ffffffffffffffffffffffffffffffffffffffff021916908373ffffffffffffffffffffffffffffffffffffffff160217905550565b60008054906101000a900473ffffffffffffffffffffffffffffffffffffffff1681565b60606001805480602002602001604051908101604052809291908181526020018280548015620002a757602002820191906000526020600020905b8160009054906101000a900473ffffffffffffffffffffffffffffffffffffffff1673ffffffffffffffffffffffffffffffffffffffff16815260200190600101908083116200025c575b5050505050905090565b60008054906101000a900473ffffffffffffffffffffffffffffffffffffffff1673ffffffffffffffffffffffffffffffffffffffff163373ffffffffffffffffffffffffffffffffffffffff16146200030a57600080fd5b600073ffffffffffffffffffffffffffffffffffffffff168173ffffffffffffffffffffffffffffffffffffffff1614156200034557600080fd5b806000806101000a81548173ffffffffffffffffffffffffffffffffffffffff021916908373ffffffffffffffffffffffffffffffffffffffff16021790555050565b60003360008054906101000a900473ffffffffffffffffffffffffffffffffffffffff16604051620003ba906200044d565b620003c7929190620005b5565b604051809103906000f080158015620003e4573d6000803e3d6000fd5b5090506001819080600181540180825580915050600190039060005260206000200160009091909190916101000a81548173ffffffffffffffffffffffffffffffffffffffff021916908373ffffffffffffffffffffffffffffffffffffffff16021790555050565b611b5b80620006c683390190565b6000813590506200046c8162000691565b92915050565b6000813590506200048381620006ab565b92915050565b6000602082840312156200049c57600080fd5b6000620004ac848285016200045b565b91505092915050565b600060208284031215620004c857600080fd5b6000620004d88482850162000472565b91505092915050565b6000620004ef83836200050c565b60208301905092915050565b620005068162000653565b82525050565b62000517816200063f565b82525050565b62000528816200063f565b82525050565b60006200053b8262000616565b6200054781856200062e565b9350620005548362000606565b8060005b838110156200058b5781516200056f8882620004e1565b97506200057c8362000621565b92505060018101905062000558565b5085935050505092915050565b6000602082019050620005af60008301846200051d565b92915050565b6000604082019050620005cc60008301856200051d565b620005db6020830184620004fb565b9392505050565b60006020820190508181036000830152620005fe81846200052e565b905092915050565b6000819050602082019050919050565b600081519050919050565b6000602082019050919050565b600082825260208201905092915050565b60006200064c8262000667565b9050919050565b6000620006608262000667565b9050919050565b600073ffffffffffffffffffffffffffffffffffffffff82169050919050565b6000819050919050565b6200069c816200063f565b8114620006a857600080fd5b50565b620006b68162000687565b8114620006c257600080fd5b5056fe60806040523480156200001157600080fd5b5060405162001b5b38038062001b5b833981810160405281019062000037919062000196565b806000806101000a81548173ffffffffffffffffffffffffffffffffffffffff021916908373ffffffffffffffffffffffffffffffffffffffff1602179055508142406040516020016200008d9291906200021e565b6040516020818303038152906040528051906020012060018190555081600460006101000a81548173ffffffffffffffffffffffffffffffffffffffff021916908373ffffffffffffffffffffffffffffffffffffffff160217905550600460009054906101000a900473ffffffffffffffffffffffffffffffffffffffff1673ffffffffffffffffffffffffffffffffffffffff166001547e06379582cf33f082958411b512c6d1b9888095de98bc1f9532e3f1653361526002546040516200015891906200024e565b60405180910390a350506200033a565b600081519050620001798162000306565b92915050565b600081519050620001908162000320565b92915050565b60008060408385031215620001aa57600080fd5b6000620001ba8582860162000168565b9250506020620001cd858286016200017f565b9150509250929050565b620001ec620001e6826200026b565b620002c7565b82525050565b62000207620002018262000293565b620002db565b82525050565b6200021881620002bd565b82525050565b60006200022c8285620001d7565b6014820191506200023e8284620001f2565b6020820191508190509392505050565b60006020820190506200026560008301846200020d565b92915050565b600062000278826200029d565b9050919050565b60006200028c826200029d565b9050919050565b6000819050919050565b600073ffffffffffffffffffffffffffffffffffffffff82169050919050565b6000819050919050565b6000620002d482620002e5565b9050919050565b6000819050919050565b6000620002f282620002f9565b9050919050565b60008160601b9050919050565b62000311816200026b565b81146200031d57600080fd5b50565b6200032b816200027f565b81146200033757600080fd5b50565b611811806200034a6000396000f3fe6080604052600436106100a05760003560e01c80639083d3fa116100645780639083d3fa1461019b578063c8011be9146101c4578063d30895e4146101db578063d4f77b1c14610206578063d7c81b5514610210578063d84c1ac91461023b576100e0565b806311610c25146100e557806359a5f12d14610110578063719ce73e1461013b5780637255d729146101665780638da5cb5b14610170576100e0565b366100e0577f88a5966d370b9919b20f3e2c13ff65706f196a4e32cc2c12bf57088f8852587433346040516100d692919061147e565b60405180910390a1005b600080fd5b3480156100f157600080fd5b506100fa610252565b60405161010791906115c2565b60405180910390f35b34801561011c57600080fd5b50610125610258565b6040516101329190611463565b60405180910390f35b34801561014757600080fd5b5061015061027e565b60405161015d91906115c2565b60405180910390f35b61016e610284565b005b34801561017c57600080fd5b506101856103ed565b6040516101929190611463565b60405180910390f35b3480156101a757600080fd5b506101c260048036038101906101bd9190611124565b610411565b005b3480156101d057600080fd5b506101d9610789565b005b3480156101e757600080fd5b506101f0610a08565b6040516101fd9190611463565b60405180910390f35b61020e610a2e565b005b34801561021c57600080fd5b50610225610cf8565b60405161023291906114a7565b60405180910390f35b34801561024757600080fd5b50610250610cfe565b005b60035481565b600560009054906101000a900473ffffffffffffffffffffffffffffffffffffffff1681565b60025481565b600460009054906101000a900473ffffffffffffffffffffffffffffffffffffffff1673ffffffffffffffffffffffffffffffffffffffff163373ffffffffffffffffffffffffffffffffffffffff1614610314576040517f08c379a000000000000000000000000000000000000000000000000000000000815260040161030b906114c2565b60405180910390fd5b60003411610357576040517f08c379a000000000000000000000000000000000000000000000000000000000815260040161034e90611522565b60405180910390fd5b346002600082825461036991906115f9565b9250508190555034600381905550600460009054906101000a900473ffffffffffffffffffffffffffffffffffffffff1673ffffffffffffffffffffffffffffffffffffffff166001547e06379582cf33f082958411b512c6d1b9888095de98bc1f9532e3f1653361526002546040516103e391906115c2565b60405180910390a3565b60008054906101000a900473ffffffffffffffffffffffffffffffffffffffff1681565b60008054906101000a900473ffffffffffffffffffffffffffffffffffffffff1673ffffffffffffffffffffffffffffffffffffffff163373ffffffffffffffffffffffffffffffffffffffff161461049f576040517f08c379a0000000000000000000000000000000000000000000000000000000008152600401610496906114c2565b60405180910390fd5b600073ffffffffffffffffffffffffffffffffffffffff16600460009054906101000a900473ffffffffffffffffffffffffffffffffffffffff1673ffffffffffffffffffffffffffffffffffffffff161415801561054d5750600073ffffffffffffffffffffffffffffffffffffffff16600560009054906101000a900473ffffffffffffffffffffffffffffffffffffffff1673ffffffffffffffffffffffffffffffffffffffff1614155b61055657600080fd5b6000600154141561059c576040517f08c379a0000000000000000000000000000000000000000000000000000000008152600401610593906115a2565b60405180910390fd5b600460009054906101000a900473ffffffffffffffffffffffffffffffffffffffff1673ffffffffffffffffffffffffffffffffffffffff168273ffffffffffffffffffffffffffffffffffffffff1614806106455750600560009054906101000a900473ffffffffffffffffffffffffffffffffffffffff1673ffffffffffffffffffffffffffffffffffffffff168273ffffffffffffffffffffffffffffffffffffffff16145b61064e57600080fd5b600060026064600254610661919061164f565b61066b9190611680565b9050610677828261105e565b60008373ffffffffffffffffffffffffffffffffffffffff168260025461069e91906116da565b6040516106aa9061144e565b60006040518083038185875af1925050503d80600081146106e7576040519150601f19603f3d011682016040523d82523d6000602084013e6106ec565b606091505b5050905080610730576040517f08c379a000000000000000000000000000000000000000000000000000000000815260040161072790611542565b60405180910390fd5b8373ffffffffffffffffffffffffffffffffffffffff166001547ff91f56a3ee1a546af57623d149e7046d11ea3eb2a69d952f3546b681742a04e060025460405161077b91906115c2565b60405180910390a350505050565b600460009054906101000a900473ffffffffffffffffffffffffffffffffffffffff1673ffffffffffffffffffffffffffffffffffffffff163373ffffffffffffffffffffffffffffffffffffffff1614610819576040517f08c379a0000000000000000000000000000000000000000000000000000000008152600401610810906114c2565b60405180910390fd5b600073ffffffffffffffffffffffffffffffffffffffff16600560009054906101000a900473ffffffffffffffffffffffffffffffffffffffff1673ffffffffffffffffffffffffffffffffffffffff16146108aa576040517f08c379a00000000000000000000000000000000000000000000000000000000081526004016108a190611582565b60405180910390fd5b6000600354476108ba91906116da565b905060008111156109945760008060009054906101000a900473ffffffffffffffffffffffffffffffffffffffff1673ffffffffffffffffffffffffffffffffffffffff168260405161090c9061144e565b60006040518083038185875af1925050503d8060008114610949576040519150601f19603f3d011682016040523d82523d6000602084013e61094e565b606091505b5050905080610992576040517f08c379a000000000000000000000000000000000000000000000000000000000815260040161098990611542565b60405180910390fd5b505b7f730d9f4e127b4c1c5d999194f79025fe149736fbb95b0755b18ed20ddd01b4e06001546040516109c591906114a7565b60405180910390a1600460009054906101000a900473ffffffffffffffffffffffffffffffffffffffff1673ffffffffffffffffffffffffffffffffffffffff16ff5b600460009054906101000a900473ffffffffffffffffffffffffffffffffffffffff1681565b600560009054906101000a900473ffffffffffffffffffffffffffffffffffffffff1673ffffffffffffffffffffffffffffffffffffffff163373ffffffffffffffffffffffffffffffffffffffff1614158015610ada5750600460009054906101000a900473ffffffffffffffffffffffffffffffffffffffff1673ffffffffffffffffffffffffffffffffffffffff163373ffffffffffffffffffffffffffffffffffffffff1614155b610b19576040517f08c379a0000000000000000000000000000000000000000000000000000000008152600401610b1090611562565b60405180910390fd5b600073ffffffffffffffffffffffffffffffffffffffff16600560009054906101000a900473ffffffffffffffffffffffffffffffffffffffff1673ffffffffffffffffffffffffffffffffffffffff1614610baa576040517f08c379a0000000000000000000000000000000000000000000000000000000008152600401610ba1906114e2565b60405180910390fd5b6003543414610bee576040517f08c379a0000000000000000000000000000000000000000000000000000000008152600401610be590611502565b60405180910390fd5b33600560006101000a81548173ffffffffffffffffffffffffffffffffffffffff021916908373ffffffffffffffffffffffffffffffffffffffff1602179055503460026000828254610c4191906115f9565b92505081905550600560009054906101000a900473ffffffffffffffffffffffffffffffffffffffff1673ffffffffffffffffffffffffffffffffffffffff16600460009054906101000a900473ffffffffffffffffffffffffffffffffffffffff1673ffffffffffffffffffffffffffffffffffffffff166001547f3260b8a907f304fe6855f0f3f1e6efffc0ae261ab322c7f326126155cb9bc162600254604051610cee91906115c2565b60405180910390a4565b60015481565b60008054906101000a900473ffffffffffffffffffffffffffffffffffffffff1673ffffffffffffffffffffffffffffffffffffffff163373ffffffffffffffffffffffffffffffffffffffff1614610d8c576040517f08c379a0000000000000000000000000000000000000000000000000000000008152600401610d83906114c2565b60405180910390fd5b60006001541415610d9c57600080fd5b600073ffffffffffffffffffffffffffffffffffffffff16600460009054906101000a900473ffffffffffffffffffffffffffffffffffffffff1673ffffffffffffffffffffffffffffffffffffffff1614610ec4576000600460009054906101000a900473ffffffffffffffffffffffffffffffffffffffff1673ffffffffffffffffffffffffffffffffffffffff16600354604051610e3c9061144e565b60006040518083038185875af1925050503d8060008114610e79576040519150601f19603f3d011682016040523d82523d6000602084013e610e7e565b606091505b5050905080610ec2576040517f08c379a0000000000000000000000000000000000000000000000000000000008152600401610eb990611542565b60405180910390fd5b505b600073ffffffffffffffffffffffffffffffffffffffff16600560009054906101000a900473ffffffffffffffffffffffffffffffffffffffff1673ffffffffffffffffffffffffffffffffffffffff1614610fec576000600560009054906101000a900473ffffffffffffffffffffffffffffffffffffffff1673ffffffffffffffffffffffffffffffffffffffff16600354604051610f649061144e565b60006040518083038185875af1925050503d8060008114610fa1576040519150601f19603f3d011682016040523d82523d6000602084013e610fa6565b606091505b5050905080610fea576040517f08c379a0000000000000000000000000000000000000000000000000000000008152600401610fe190611542565b60405180910390fd5b505b7f730d9f4e127b4c1c5d999194f79025fe149736fbb95b0755b18ed20ddd01b4e060015460405161101d91906114a7565b60405180910390a160008054906101000a900473ffffffffffffffffffffffffffffffffffffffff1673ffffffffffffffffffffffffffffffffffffffff16ff5b60008273ffffffffffffffffffffffffffffffffffffffff16826040516110849061144e565b60006040518083038185875af1925050503d80600081146110c1576040519150601f19603f3d011682016040523d82523d6000602084013e6110c6565b606091505b505090508061110a576040517f08c379a000000000000000000000000000000000000000000000000000000000815260040161110190611542565b60405180910390fd5b505050565b60008135905061111e816117c4565b92915050565b6000806040838503121561113757600080fd5b60006111458582860161110f565b92505060206111568582860161110f565b9150509250929050565b61116981611720565b82525050565b6111788161170e565b82525050565b61118781611732565b82525050565b600061119a6031836115e8565b91507f596f7520646f6e2774206861766520746865207065726d697373696f6e73207460008301527f6f20646f207468697320616374696f6e2e0000000000000000000000000000006020830152604082019050919050565b60006112006021836115e8565b91507f536f6d65626f647920697320616c726561647920696e20746869732067616d6560008301527f2e000000000000000000000000000000000000000000000000000000000000006020830152604082019050919050565b60006112666038836115e8565b91507f596f75206d757374207374616b65207468652073616d6520616d6f756e74206f60008301527f66204554487320617320796f7572206f70706f6e656e742e00000000000000006020830152604082019050919050565b60006112cc6019836115e8565b91507f596f75206d757374207374616b6520736f6d6520455448732e000000000000006000830152602082019050919050565b600061130c6000836115dd565b9150600082019050919050565b60006113266010836115e8565b91507f5472616e73666572206661696c65642e000000000000000000000000000000006000830152602082019050919050565b6000611366601d836115e8565b91507f596f752061726520616c726561647920696e20746869732067616d652e0000006000830152602082019050919050565b60006113a6602b836115e8565b91507f47616d6520616c72656164792061636365707465642e20596f752063616e277460008301527f2064656c6574652069742e0000000000000000000000000000000000000000006020830152604082019050919050565b600061140c6013836115e8565b91507f47616d6520616c726561647920656e6465642e000000000000000000000000006000830152602082019050919050565b6114488161175c565b82525050565b6000611459826112ff565b9150819050919050565b60006020820190506114786000830184611160565b92915050565b6000604082019050611493600083018561116f565b6114a0602083018461143f565b9392505050565b60006020820190506114bc600083018461117e565b92915050565b600060208201905081810360008301526114db8161118d565b9050919050565b600060208201905081810360008301526114fb816111f3565b9050919050565b6000602082019050818103600083015261151b81611259565b9050919050565b6000602082019050818103600083015261153b816112bf565b9050919050565b6000602082019050818103600083015261155b81611319565b9050919050565b6000602082019050818103600083015261157b81611359565b9050919050565b6000602082019050818103600083015261159b81611399565b9050919050565b600060208201905081810360008301526115bb816113ff565b9050919050565b60006020820190506115d7600083018461143f565b92915050565b600081905092915050565b600082825260208201905092915050565b60006116048261175c565b915061160f8361175c565b9250827fffffffffffffffffffffffffffffffffffffffffffffffffffffffffffffffff0382111561164457611643611766565b5b828201905092915050565b600061165a8261175c565b91506116658361175c565b92508261167557611674611795565b5b828204905092915050565b600061168b8261175c565b91506116968361175c565b9250817fffffffffffffffffffffffffffffffffffffffffffffffffffffffffffffffff04831182151516156116cf576116ce611766565b5b828202905092915050565b60006116e58261175c565b91506116f08361175c565b92508282101561170357611702611766565b5b828203905092915050565b60006117198261173c565b9050919050565b600061172b8261173c565b9050919050565b6000819050919050565b600073ffffffffffffffffffffffffffffffffffffffff82169050919050565b6000819050919050565b7f4e487b7100000000000000000000000000000000000000000000000000000000600052601160045260246000fd5b7f4e487b7100000000000000000000000000000000000000000000000000000000600052601260045260246000fd5b6117cd81611720565b81146117d857600080fd5b5056fea264697066735822122009a179eb034b6e3f654800b1d56bb0cbd4035dd9136c4a3d8dcd643657855f9f64736f6c63430008000033a2646970667358221220318070714d797d6c9095b51dc7b76cb4e542d16c4d953e7a5634d372fcd3089364736f6c63430008000033",
  "immutableReferences": {},
  "source": "// SPDX-License-Identifier: MIT\n\npragma solidity ^0.8.0;\n\nimport \"./Ownable.sol\";\nimport \"./FeesStorage.sol\";\n\ncontract GameFactory is Ownable {\n    address[] public deployedGames;\n\n    event GameCreated(Game game);\n\n    /**\n     * @dev Allows a player to instanciate a new game\n     */\n    function instanciateGame() external {\n        address payable newGame = payable(\n            address(new Game(msg.sender, payable(owner)))\n        );\n        deployedGames.push(newGame);\n    }\n\n    /**\n     * @dev Returns an array containing all the deployed games\n     */\n    function getDeployedGames() external view returns (address[] memory) {\n        return deployedGames;\n    }\n}\n\ncontract Game {\n    address payable public owner;\n    bytes32 public gameId;\n    uint256 public prizePool;\n    uint256 public bet;\n    address payable public player1;\n    address payable public player2;\n\n    event Received(address sender, uint256 value);\n    event GameCreated(\n        bytes32 indexed gameId,\n        address indexed player1,\n        uint256 prizePool\n    );\n    event GameAccepted(\n        bytes32 indexed gameId,\n        address indexed player1,\n        address indexed player2,\n        uint256 prizePool\n    );\n    event GameEnded(\n        bytes32 indexed gameId,\n        address indexed winner,\n        uint256 prizePool\n    );\n    event GameCancelled(bytes32 gameId);\n\n    /**\n     * @dev Throws if called by any account other than the owner.\n     */\n    modifier onlyOwner() {\n        require(\n            msg.sender == owner,\n            \"You don't have the permissions to do this action.\"\n        );\n        _;\n    }\n\n    /**\n     * @dev Throws if called by any account other than the game creator.\n     */\n    modifier onlyGameCreator() {\n        require(\n            msg.sender == player1,\n            \"You don't have the permissions to do this action.\"\n        );\n        _;\n    }\n\n    /**\n     * @dev Throws if called when the game is already full.\n     */\n    modifier onlyIfPossible() {\n        require(\n            msg.sender != player2 && msg.sender != player1,\n            \"You are already in this game.\"\n        );\n        require(player2 == address(0), \"Somebody is already in this game.\");\n        _;\n    }\n\n    /**\n     * @dev The Game constructor sets `player1` of the Game to the `_gameCreator`\n     * and the original `owner` of the contract to the address that deployed the GameFactory\n     * @param _gameCreator The address of the account who created the Game\n     * @param _owner The address of the owner of the GameFactory\n     */\n    constructor(address _gameCreator, address payable _owner) {\n        owner = _owner;\n        gameId = bytes32(\n            keccak256(\n                abi.encodePacked(_gameCreator, blockhash(block.timestamp))\n            )\n        );\n        player1 = payable(_gameCreator);\n        emit GameCreated(gameId, player1, prizePool);\n    }\n\n    /**\n     * @dev Allows the account that instanciate the game to create the game, staking some ETHs\n     */\n    function createGame() external payable onlyGameCreator {\n        require(msg.value > 0, \"You must stake some ETHs.\");\n        prizePool += msg.value;\n        bet = msg.value;\n        emit GameCreated(gameId, player1, prizePool);\n    }\n\n    /**\n     * @dev Fallback function\n     */\n    receive() external payable {\n        emit Received(msg.sender, msg.value);\n    }\n\n    /**\n     * @dev Allows a player to join an existing challenge\n     */\n    function joinGame() external payable onlyIfPossible {\n        require(\n            msg.value == bet,\n            \"You must stake the same amount of ETHs as your opponent.\"\n        );\n        player2 = payable(msg.sender);\n        prizePool += msg.value;\n        emit GameAccepted(gameId, player1, player2, prizePool);\n    }\n\n    /**\n     * @dev Allows the creator of the game to delete it, only if it hasn't already been accepted by an opponent\n     */\n    function deleteGame() external onlyGameCreator {\n        require(\n            player2 == address(0),\n            \"Game already accepted. You can't delete it.\"\n        );\n        uint256 exceededAmount = address(this).balance - bet;\n        if (exceededAmount > 0) {\n            (bool success, ) = owner.call{value: exceededAmount}(\"\");\n            require(success, \"Transfer failed.\");\n        }\n        emit GameCancelled(gameId);\n        selfdestruct(player1);\n    }\n\n    /**\n     * @dev Declares the winner of the Game and resets state variables\n     * @param _winner Address of the winner\n     * @param _storageAddress Address of the account that store the fees\n     */\n    function declareWinner(\n        address payable _winner,\n        address payable _storageAddress\n    ) external onlyOwner {\n        require(player1 != address(0) && player2 != address(0));\n        require(gameId != \"\", \"Game already ended.\");\n        require(_winner == player1 || _winner == player2);\n        uint256 fee = (prizePool / 100) * 2;\n        _storeFees(payable(address(_storageAddress)), fee);\n        (bool success, ) = _winner.call{value: prizePool - fee}(\"\");\n        require(success, \"Transfer failed.\");\n        emit GameEnded(gameId, _winner, prizePool);\n    }\n\n    /**\n     * @dev Stores the fee's `_amount` to another contract at address `_storageAddress`\n     * @param _storageAddress Address of the account that store the fees\n     * @param _amount Amount of ETHs to store in the storage\n     */\n    function _storeFees(address payable _storageAddress, uint256 _amount)\n        internal\n    {\n        (bool success, ) = _storageAddress.call{value: _amount}(\"\");\n        require(success, \"Transfer failed.\");\n    }\n\n    /**\n     * @dev Allows the `owner` of the Factory to cancel the game and give back the bets\n     */\n    function cancelGame() external onlyOwner {\n        require(gameId != \"\");\n        if (player1 != address(0)) {\n            (bool success, ) = player1.call{value: bet}(\"\");\n            require(success, \"Transfer failed.\");\n        }\n        if (player2 != address(0)) {\n            (bool success, ) = player2.call{value: bet}(\"\");\n            require(success, \"Transfer failed.\");\n        }\n        emit GameCancelled(gameId);\n        selfdestruct(owner);\n    }\n}\n",
  "sourcePath": "/Users/niccolofant/dev/Solidity/Gamely/contracts/Game.sol",
  "compiler": {
    "name": "solc",
    "version": "0.8.0+commit.c7dfd78e.Emscripten.clang"
  },
  "schemaVersion": "3.4.3",
  "updatedAt": "2021-09-15T11:28:23.241Z",
  "devdoc": {
    "kind": "dev",
    "methods": {
      "getDeployedGames()": {
        "details": "Returns an array containing all the deployed games"
      },
      "instanciateGame()": {
        "details": "Allows a player to instanciate a new game"
      },
      "renounceOwnership()": {
        "details": "Allows the current owner to relinquish control of the contract."
      },
      "transferOwnership(address)": {
        "details": "Allows the current owner to transfer control of the contract to a newOwner.",
        "params": {
          "newOwner": "The address to transfer ownership to."
        }
      }
    },
    "version": 1
  },
  "userdoc": {
    "kind": "user",
    "methods": {},
    "version": 1
  }
}