{
  "contractName": "Game",
  "abi": [
    {
      "inputs": [
        {
          "internalType": "address",
          "name": "_gameCreator",
          "type": "address"
        },
        {
          "internalType": "address payable",
          "name": "_owner",
          "type": "address"
        }
      ],
      "stateMutability": "payable",
      "type": "constructor"
    },
    {
      "anonymous": false,
      "inputs": [
        {
          "indexed": true,
          "internalType": "bytes32",
          "name": "gameId",
          "type": "bytes32"
        },
        {
          "indexed": true,
          "internalType": "address",
          "name": "player1",
          "type": "address"
        },
        {
          "indexed": true,
          "internalType": "address",
          "name": "player2",
          "type": "address"
        },
        {
          "indexed": false,
          "internalType": "uint256",
          "name": "prizePool",
          "type": "uint256"
        }
      ],
      "name": "GameAccepted",
      "type": "event"
    },
    {
      "anonymous": false,
      "inputs": [
        {
          "indexed": false,
          "internalType": "bytes32",
          "name": "gameId",
          "type": "bytes32"
        }
      ],
      "name": "GameCancelled",
      "type": "event"
    },
    {
      "anonymous": false,
      "inputs": [
        {
          "indexed": true,
          "internalType": "bytes32",
          "name": "gameId",
          "type": "bytes32"
        },
        {
          "indexed": true,
          "internalType": "address",
          "name": "player1",
          "type": "address"
        },
        {
          "indexed": false,
          "internalType": "uint256",
          "name": "prizePool",
          "type": "uint256"
        }
      ],
      "name": "GameCreated",
      "type": "event"
    },
    {
      "anonymous": false,
      "inputs": [
        {
          "indexed": true,
          "internalType": "bytes32",
          "name": "gameId",
          "type": "bytes32"
        },
        {
          "indexed": true,
          "internalType": "address",
          "name": "winner",
          "type": "address"
        },
        {
          "indexed": false,
          "internalType": "uint256",
          "name": "prizePool",
          "type": "uint256"
        }
      ],
      "name": "GameEnded",
      "type": "event"
    },
    {
      "anonymous": false,
      "inputs": [
        {
          "indexed": false,
          "internalType": "address",
          "name": "sender",
          "type": "address"
        },
        {
          "indexed": false,
          "internalType": "uint256",
          "name": "value",
          "type": "uint256"
        }
      ],
      "name": "Received",
      "type": "event"
    },
    {
      "inputs": [],
      "name": "bet",
      "outputs": [
        {
          "internalType": "uint256",
          "name": "",
          "type": "uint256"
        }
      ],
      "stateMutability": "view",
      "type": "function"
    },
    {
      "inputs": [],
      "name": "gameId",
      "outputs": [
        {
          "internalType": "bytes32",
          "name": "",
          "type": "bytes32"
        }
      ],
      "stateMutability": "view",
      "type": "function"
    },
    {
      "inputs": [],
      "name": "owner",
      "outputs": [
        {
          "internalType": "address payable",
          "name": "",
          "type": "address"
        }
      ],
      "stateMutability": "view",
      "type": "function"
    },
    {
      "inputs": [],
      "name": "player1",
      "outputs": [
        {
          "internalType": "address payable",
          "name": "",
          "type": "address"
        }
      ],
      "stateMutability": "view",
      "type": "function"
    },
    {
      "inputs": [],
      "name": "player2",
      "outputs": [
        {
          "internalType": "address payable",
          "name": "",
          "type": "address"
        }
      ],
      "stateMutability": "view",
      "type": "function"
    },
    {
      "inputs": [],
      "name": "prizePool",
      "outputs": [
        {
          "internalType": "uint256",
          "name": "",
          "type": "uint256"
        }
      ],
      "stateMutability": "view",
      "type": "function"
    },
    {
      "stateMutability": "payable",
      "type": "receive"
    },
    {
      "inputs": [],
      "name": "createGame",
      "outputs": [],
      "stateMutability": "payable",
      "type": "function"
    },
    {
      "inputs": [],
      "name": "joinGame",
      "outputs": [],
      "stateMutability": "payable",
      "type": "function"
    },
    {
      "inputs": [],
      "name": "deleteGame",
      "outputs": [],
      "stateMutability": "nonpayable",
      "type": "function"
    },
    {
      "inputs": [
        {
          "internalType": "address payable",
          "name": "_winner",
          "type": "address"
        }
      ],
      "name": "_declareWinner",
      "outputs": [],
      "stateMutability": "nonpayable",
      "type": "function"
    },
    {
      "inputs": [],
      "name": "cancelGame",
      "outputs": [],
      "stateMutability": "nonpayable",
      "type": "function"
    }
  ],
  "bytecode": "0x608060405260405162001a9638038062001a96833981810160405281019062000029919062000188565b806000806101000a81548173ffffffffffffffffffffffffffffffffffffffff021916908373ffffffffffffffffffffffffffffffffffffffff1602179055508143406040516020016200007f92919062000210565b6040516020818303038152906040528051906020012060018190555081600460006101000a81548173ffffffffffffffffffffffffffffffffffffffff021916908373ffffffffffffffffffffffffffffffffffffffff160217905550600460009054906101000a900473ffffffffffffffffffffffffffffffffffffffff1673ffffffffffffffffffffffffffffffffffffffff166001547e06379582cf33f082958411b512c6d1b9888095de98bc1f9532e3f1653361526002546040516200014a919062000240565b60405180910390a350506200032c565b6000815190506200016b81620002f8565b92915050565b600081519050620001828162000312565b92915050565b600080604083850312156200019c57600080fd5b6000620001ac858286016200015a565b9250506020620001bf8582860162000171565b9150509250929050565b620001de620001d8826200025d565b620002b9565b82525050565b620001f9620001f38262000285565b620002cd565b82525050565b6200020a81620002af565b82525050565b60006200021e8285620001c9565b601482019150620002308284620001e4565b6020820191508190509392505050565b6000602082019050620002576000830184620001ff565b92915050565b60006200026a826200028f565b9050919050565b60006200027e826200028f565b9050919050565b6000819050919050565b600073ffffffffffffffffffffffffffffffffffffffff82169050919050565b6000819050919050565b6000620002c682620002d7565b9050919050565b6000819050919050565b6000620002e482620002eb565b9050919050565b60008160601b9050919050565b62000303816200025d565b81146200030f57600080fd5b50565b6200031d8162000271565b81146200032957600080fd5b50565b61175a806200033c6000396000f3fe6080604052600436106100a05760003560e01c80638da5cb5b116100645780638da5cb5b14610199578063c8011be9146101c4578063d30895e4146101db578063d4f77b1c14610206578063d7c81b5514610210578063d84c1ac91461023b576100e0565b806311610c25146100e557806359a5f12d14610110578063719ce73e1461013b5780637255d7291461016657806377adb6f014610170576100e0565b366100e0577f88a5966d370b9919b20f3e2c13ff65706f196a4e32cc2c12bf57088f8852587433346040516100d69291906113c7565b60405180910390a1005b600080fd5b3480156100f157600080fd5b506100fa610252565b604051610107919061150b565b60405180910390f35b34801561011c57600080fd5b50610125610258565b60405161013291906113ac565b60405180910390f35b34801561014757600080fd5b5061015061027e565b60405161015d919061150b565b60405180910390f35b61016e610284565b005b34801561017c57600080fd5b5061019760048036038101906101929190611080565b6103ed565b005b3480156101a557600080fd5b506101ae6106c1565b6040516101bb91906113ac565b60405180910390f35b3480156101d057600080fd5b506101d96106e5565b005b3480156101e757600080fd5b506101f0610964565b6040516101fd91906113ac565b60405180910390f35b61020e61098a565b005b34801561021c57600080fd5b50610225610c54565b60405161023291906113f0565b60405180910390f35b34801561024757600080fd5b50610250610c5a565b005b60035481565b600560009054906101000a900473ffffffffffffffffffffffffffffffffffffffff1681565b60025481565b600460009054906101000a900473ffffffffffffffffffffffffffffffffffffffff1673ffffffffffffffffffffffffffffffffffffffff163373ffffffffffffffffffffffffffffffffffffffff1614610314576040517f08c379a000000000000000000000000000000000000000000000000000000000815260040161030b9061140b565b60405180910390fd5b60003411610357576040517f08c379a000000000000000000000000000000000000000000000000000000000815260040161034e9061146b565b60405180910390fd5b34600260008282546103699190611542565b9250508190555034600381905550600460009054906101000a900473ffffffffffffffffffffffffffffffffffffffff1673ffffffffffffffffffffffffffffffffffffffff166001547e06379582cf33f082958411b512c6d1b9888095de98bc1f9532e3f1653361526002546040516103e3919061150b565b60405180910390a3565b60008054906101000a900473ffffffffffffffffffffffffffffffffffffffff1673ffffffffffffffffffffffffffffffffffffffff163373ffffffffffffffffffffffffffffffffffffffff161461047b576040517f08c379a00000000000000000000000000000000000000000000000000000000081526004016104729061140b565b60405180910390fd5b600060015414156104c1576040517f08c379a00000000000000000000000000000000000000000000000000000000081526004016104b8906114eb565b60405180910390fd5b600460009054906101000a900473ffffffffffffffffffffffffffffffffffffffff1673ffffffffffffffffffffffffffffffffffffffff168173ffffffffffffffffffffffffffffffffffffffff16148061056a5750600560009054906101000a900473ffffffffffffffffffffffffffffffffffffffff1673ffffffffffffffffffffffffffffffffffffffff168173ffffffffffffffffffffffffffffffffffffffff16145b61057357600080fd5b6000600260646002546105869190611598565b61059091906115c9565b90506105b073d9145cce52d386f254917e481eb44e9943f3913882610fba565b60008273ffffffffffffffffffffffffffffffffffffffff16826002546105d79190611623565b6040516105e390611397565b60006040518083038185875af1925050503d8060008114610620576040519150601f19603f3d011682016040523d82523d6000602084013e610625565b606091505b5050905080610669576040517f08c379a00000000000000000000000000000000000000000000000000000000081526004016106609061148b565b60405180910390fd5b8273ffffffffffffffffffffffffffffffffffffffff166001547ff91f56a3ee1a546af57623d149e7046d11ea3eb2a69d952f3546b681742a04e06002546040516106b4919061150b565b60405180910390a3505050565b60008054906101000a900473ffffffffffffffffffffffffffffffffffffffff1681565b600460009054906101000a900473ffffffffffffffffffffffffffffffffffffffff1673ffffffffffffffffffffffffffffffffffffffff163373ffffffffffffffffffffffffffffffffffffffff1614610775576040517f08c379a000000000000000000000000000000000000000000000000000000000815260040161076c9061140b565b60405180910390fd5b600073ffffffffffffffffffffffffffffffffffffffff16600560009054906101000a900473ffffffffffffffffffffffffffffffffffffffff1673ffffffffffffffffffffffffffffffffffffffff1614610806576040517f08c379a00000000000000000000000000000000000000000000000000000000081526004016107fd906114cb565b60405180910390fd5b6000600354476108169190611623565b905060008111156108f05760008060009054906101000a900473ffffffffffffffffffffffffffffffffffffffff1673ffffffffffffffffffffffffffffffffffffffff168260405161086890611397565b60006040518083038185875af1925050503d80600081146108a5576040519150601f19603f3d011682016040523d82523d6000602084013e6108aa565b606091505b50509050806108ee576040517f08c379a00000000000000000000000000000000000000000000000000000000081526004016108e59061148b565b60405180910390fd5b505b7f730d9f4e127b4c1c5d999194f79025fe149736fbb95b0755b18ed20ddd01b4e060015460405161092191906113f0565b60405180910390a1600460009054906101000a900473ffffffffffffffffffffffffffffffffffffffff1673ffffffffffffffffffffffffffffffffffffffff16ff5b600460009054906101000a900473ffffffffffffffffffffffffffffffffffffffff1681565b600560009054906101000a900473ffffffffffffffffffffffffffffffffffffffff1673ffffffffffffffffffffffffffffffffffffffff163373ffffffffffffffffffffffffffffffffffffffff1614158015610a365750600460009054906101000a900473ffffffffffffffffffffffffffffffffffffffff1673ffffffffffffffffffffffffffffffffffffffff163373ffffffffffffffffffffffffffffffffffffffff1614155b610a75576040517f08c379a0000000000000000000000000000000000000000000000000000000008152600401610a6c906114ab565b60405180910390fd5b600073ffffffffffffffffffffffffffffffffffffffff16600560009054906101000a900473ffffffffffffffffffffffffffffffffffffffff1673ffffffffffffffffffffffffffffffffffffffff1614610b06576040517f08c379a0000000000000000000000000000000000000000000000000000000008152600401610afd9061142b565b60405180910390fd5b6003543414610b4a576040517f08c379a0000000000000000000000000000000000000000000000000000000008152600401610b419061144b565b60405180910390fd5b33600560006101000a81548173ffffffffffffffffffffffffffffffffffffffff021916908373ffffffffffffffffffffffffffffffffffffffff1602179055503460026000828254610b9d9190611542565b92505081905550600560009054906101000a900473ffffffffffffffffffffffffffffffffffffffff1673ffffffffffffffffffffffffffffffffffffffff16600460009054906101000a900473ffffffffffffffffffffffffffffffffffffffff1673ffffffffffffffffffffffffffffffffffffffff166001547f3260b8a907f304fe6855f0f3f1e6efffc0ae261ab322c7f326126155cb9bc162600254604051610c4a919061150b565b60405180910390a4565b60015481565b60008054906101000a900473ffffffffffffffffffffffffffffffffffffffff1673ffffffffffffffffffffffffffffffffffffffff163373ffffffffffffffffffffffffffffffffffffffff1614610ce8576040517f08c379a0000000000000000000000000000000000000000000000000000000008152600401610cdf9061140b565b60405180910390fd5b60006001541415610cf857600080fd5b600073ffffffffffffffffffffffffffffffffffffffff16600460009054906101000a900473ffffffffffffffffffffffffffffffffffffffff1673ffffffffffffffffffffffffffffffffffffffff1614610e20576000600460009054906101000a900473ffffffffffffffffffffffffffffffffffffffff1673ffffffffffffffffffffffffffffffffffffffff16600354604051610d9890611397565b60006040518083038185875af1925050503d8060008114610dd5576040519150601f19603f3d011682016040523d82523d6000602084013e610dda565b606091505b5050905080610e1e576040517f08c379a0000000000000000000000000000000000000000000000000000000008152600401610e159061148b565b60405180910390fd5b505b600073ffffffffffffffffffffffffffffffffffffffff16600560009054906101000a900473ffffffffffffffffffffffffffffffffffffffff1673ffffffffffffffffffffffffffffffffffffffff1614610f48576000600560009054906101000a900473ffffffffffffffffffffffffffffffffffffffff1673ffffffffffffffffffffffffffffffffffffffff16600354604051610ec090611397565b60006040518083038185875af1925050503d8060008114610efd576040519150601f19603f3d011682016040523d82523d6000602084013e610f02565b606091505b5050905080610f46576040517f08c379a0000000000000000000000000000000000000000000000000000000008152600401610f3d9061148b565b60405180910390fd5b505b7f730d9f4e127b4c1c5d999194f79025fe149736fbb95b0755b18ed20ddd01b4e0600154604051610f7991906113f0565b60405180910390a160008054906101000a900473ffffffffffffffffffffffffffffffffffffffff1673ffffffffffffffffffffffffffffffffffffffff16ff5b60008273ffffffffffffffffffffffffffffffffffffffff1682604051610fe090611397565b60006040518083038185875af1925050503d806000811461101d576040519150601f19603f3d011682016040523d82523d6000602084013e611022565b606091505b5050905080611066576040517f08c379a000000000000000000000000000000000000000000000000000000000815260040161105d9061148b565b60405180910390fd5b505050565b60008135905061107a8161170d565b92915050565b60006020828403121561109257600080fd5b60006110a08482850161106b565b91505092915050565b6110b281611669565b82525050565b6110c181611657565b82525050565b6110d08161167b565b82525050565b60006110e3603183611531565b91507f596f7520646f6e2774206861766520746865207065726d697373696f6e73207460008301527f6f20646f207468697320616374696f6e2e0000000000000000000000000000006020830152604082019050919050565b6000611149602183611531565b91507f536f6d65626f647920697320616c726561647920696e20746869732067616d6560008301527f2e000000000000000000000000000000000000000000000000000000000000006020830152604082019050919050565b60006111af603883611531565b91507f596f75206d757374207374616b65207468652073616d6520616d6f756e74206f60008301527f66204554487320617320796f7572206f70706f6e656e742e00000000000000006020830152604082019050919050565b6000611215601983611531565b91507f596f75206d757374207374616b6520736f6d6520455448732e000000000000006000830152602082019050919050565b6000611255600083611526565b9150600082019050919050565b600061126f601083611531565b91507f5472616e73666572206661696c65642e000000000000000000000000000000006000830152602082019050919050565b60006112af601d83611531565b91507f596f752061726520616c726561647920696e20746869732067616d652e0000006000830152602082019050919050565b60006112ef602b83611531565b91507f47616d6520616c72656164792061636365707465642e20596f752063616e277460008301527f2064656c6574652069742e0000000000000000000000000000000000000000006020830152604082019050919050565b6000611355601383611531565b91507f47616d6520616c726561647920656e6465642e000000000000000000000000006000830152602082019050919050565b611391816116a5565b82525050565b60006113a282611248565b9150819050919050565b60006020820190506113c160008301846110a9565b92915050565b60006040820190506113dc60008301856110b8565b6113e96020830184611388565b9392505050565b600060208201905061140560008301846110c7565b92915050565b60006020820190508181036000830152611424816110d6565b9050919050565b600060208201905081810360008301526114448161113c565b9050919050565b60006020820190508181036000830152611464816111a2565b9050919050565b6000602082019050818103600083015261148481611208565b9050919050565b600060208201905081810360008301526114a481611262565b9050919050565b600060208201905081810360008301526114c4816112a2565b9050919050565b600060208201905081810360008301526114e4816112e2565b9050919050565b6000602082019050818103600083015261150481611348565b9050919050565b60006020820190506115206000830184611388565b92915050565b600081905092915050565b600082825260208201905092915050565b600061154d826116a5565b9150611558836116a5565b9250827fffffffffffffffffffffffffffffffffffffffffffffffffffffffffffffffff0382111561158d5761158c6116af565b5b828201905092915050565b60006115a3826116a5565b91506115ae836116a5565b9250826115be576115bd6116de565b5b828204905092915050565b60006115d4826116a5565b91506115df836116a5565b9250817fffffffffffffffffffffffffffffffffffffffffffffffffffffffffffffffff0483118215151615611618576116176116af565b5b828202905092915050565b600061162e826116a5565b9150611639836116a5565b92508282101561164c5761164b6116af565b5b828203905092915050565b600061166282611685565b9050919050565b600061167482611685565b9050919050565b6000819050919050565b600073ffffffffffffffffffffffffffffffffffffffff82169050919050565b6000819050919050565b7f4e487b7100000000000000000000000000000000000000000000000000000000600052601160045260246000fd5b7f4e487b7100000000000000000000000000000000000000000000000000000000600052601260045260246000fd5b61171681611669565b811461172157600080fd5b5056fea26469706673582212201569da16f01f0ac74a5e267fc1cee00ccc4404565561ea5590fcf19e6f242b1464736f6c63430008000033",
  "immutableReferences": {},
  "source": "// SPDX-License-Identifier: MIT\n\npragma solidity ^0.8.0;\n\nimport \"./Ownable.sol\";\nimport \"./FeesStorage.sol\";\n\ncontract GameFactory is Ownable {\n    address[] public deployedGames;\n\n    event GameCreated(Game game);\n\n    /**\n     * @dev Allows a player to instanciate a new game\n     */\n    function instanciateGame() external {\n        address payable newGame = payable(\n            address(new Game(msg.sender, payable(owner)))\n        );\n        deployedGames.push(newGame);\n    }\n\n    /**\n     * @dev Returns an array containing all the deployed games\n     */\n    function getDeployedGames() external view returns (address[] memory) {\n        return deployedGames;\n    }\n}\n\ncontract Game {\n    address payable public owner;\n    bytes32 public gameId;\n    uint256 public prizePool;\n    uint256 public bet;\n    address payable public player1;\n    address payable public player2;\n\n    event Received(address sender, uint256 value);\n    event GameCreated(\n        bytes32 indexed gameId,\n        address indexed player1,\n        uint256 prizePool\n    );\n    event GameAccepted(\n        bytes32 indexed gameId,\n        address indexed player1,\n        address indexed player2,\n        uint256 prizePool\n    );\n    event GameEnded(\n        bytes32 indexed gameId,\n        address indexed winner,\n        uint256 prizePool\n    );\n    event GameCancelled(bytes32 gameId);\n\n    /**\n     * @dev Throws if called by any account other than the owner.\n     */\n    modifier onlyOwner() {\n        require(\n            msg.sender == owner,\n            \"You don't have the permissions to do this action.\"\n        );\n        _;\n    }\n\n    /**\n     * @dev Throws if called by any account other than the game creator.\n     */\n    modifier onlyGameCreator() {\n        require(\n            msg.sender == player1,\n            \"You don't have the permissions to do this action.\"\n        );\n        _;\n    }\n\n    /**\n     * @dev Throws if called when the game is already full.\n     */\n    modifier onlyIfPossible() {\n        require(\n            msg.sender != player2 && msg.sender != player1,\n            \"You are already in this game.\"\n        );\n        require(player2 == address(0), \"Somebody is already in this game.\");\n        _;\n    }\n\n    /**\n     * @dev The Game constructor sets `player1` of the Game to the `_gameCreator`\n     * and the original `owner` of the contract to the address that deployed the GameFactory\n     * @param _gameCreator The address of the account who created the Game\n     * @param _owner The address of the owner of the GameFactory\n     */\n    constructor(address _gameCreator, address payable _owner) payable {\n        owner = _owner;\n        gameId = bytes32(\n            keccak256(abi.encodePacked(_gameCreator, blockhash(block.number)))\n        );\n        player1 = payable(_gameCreator);\n        emit GameCreated(gameId, player1, prizePool);\n    }\n\n    /**\n     * @dev Allows the account that instanciate the game to create the game, staking some ETHs\n     */\n    function createGame() external payable onlyGameCreator {\n        require(msg.value > 0, \"You must stake some ETHs.\");\n        prizePool += msg.value;\n        bet = msg.value;\n        emit GameCreated(gameId, player1, prizePool);\n    }\n\n    /**\n     * @dev Fallback function\n     */\n    receive() external payable {\n        emit Received(msg.sender, msg.value);\n    }\n\n    /**\n     * @dev Allows a player to join an existing challenge\n     */\n    function joinGame() external payable onlyIfPossible {\n        require(\n            msg.value == bet,\n            \"You must stake the same amount of ETHs as your opponent.\"\n        );\n        player2 = payable(msg.sender);\n        prizePool += msg.value;\n        emit GameAccepted(gameId, player1, player2, prizePool);\n    }\n\n    /**\n     * @dev Allows the creator of the game to delete it, only if it hasn't already been accepted by an opponent\n     */\n    function deleteGame() external onlyGameCreator {\n        require(\n            player2 == address(0),\n            \"Game already accepted. You can't delete it.\"\n        );\n        uint256 exceededAmount = address(this).balance - bet;\n        if (exceededAmount > 0) {\n            (bool success, ) = owner.call{value: exceededAmount}(\"\");\n            require(success, \"Transfer failed.\");\n        }\n        emit GameCancelled(gameId);\n        selfdestruct(player1);\n    }\n\n    /**\n     * @dev Declares the winner of the Game and resets state variables\n     * @param _winner Address of the winner\n     */\n    function _declareWinner(address payable _winner) external onlyOwner {\n        require(gameId != \"\", \"Game already ended.\");\n        require(_winner == player1 || _winner == player2);\n        uint256 fee = (prizePool / 100) * 2;\n        storeFees(\n            payable(address(0xd9145CCE52D386f254917e481eB44e9943F39138)),\n            fee\n        );\n        (bool success, ) = _winner.call{value: prizePool - fee}(\"\");\n        require(success, \"Transfer failed.\");\n\n        emit GameEnded(gameId, _winner, prizePool);\n    }\n\n    /**\n     * @dev Stores the fee's `_amount` to another contract at address `_storageAddress`\n     */\n    function storeFees(address payable _storageAddress, uint256 _amount)\n        internal\n    {\n        (bool success, ) = _storageAddress.call{value: _amount}(\"\");\n        require(success, \"Transfer failed.\");\n    }\n\n    /**\n     * @dev Allows the `owner` of the Factory to cancel the game and give back the bets\n     */\n    function cancelGame() external onlyOwner {\n        require(gameId != \"\");\n        if (player1 != address(0)) {\n            (bool success, ) = player1.call{value: bet}(\"\");\n            require(success, \"Transfer failed.\");\n        }\n        if (player2 != address(0)) {\n            (bool success, ) = player2.call{value: bet}(\"\");\n            require(success, \"Transfer failed.\");\n        }\n        emit GameCancelled(gameId);\n        selfdestruct(payable(owner));\n    }\n}\n",
  "sourcePath": "/Users/niccolofant/dev/Solidity/Gamely/contracts/Game.sol",
  "compiler": {
    "name": "solc",
    "version": "0.8.0+commit.c7dfd78e.Emscripten.clang"
  },
  "schemaVersion": "3.4.3",
  "updatedAt": "2021-09-14T11:01:14.573Z",
  "devdoc": {
    "kind": "dev",
    "methods": {
      "_declareWinner(address)": {
        "details": "Declares the winner of the Game and resets state variables",
        "params": {
          "_winner": "Address of the winner"
        }
      },
      "cancelGame()": {
        "details": "Allows the `owner` of the Factory to cancel the game and give back the bets"
      },
      "constructor": {
        "details": "The Game constructor sets `player1` of the Game to the `_gameCreator` and the original `owner` of the contract to the address that deployed the GameFactory",
        "params": {
          "_gameCreator": "The address of the account who created the Game",
          "_owner": "The address of the owner of the GameFactory"
        }
      },
      "createGame()": {
        "details": "Allows the account that instanciate the game to create the game, staking some ETHs"
      },
      "deleteGame()": {
        "details": "Allows the creator of the game to delete it, only if it hasn't already been accepted by an opponent"
      },
      "joinGame()": {
        "details": "Allows a player to join an existing challenge"
      }
    },
    "version": 1
  },
  "userdoc": {
    "kind": "user",
    "methods": {},
    "version": 1
  }
}